{
  "contractName": "LibroNFT",
  "abi": [
    {
      "inputs": [
        {
          "internalType": "address",
          "name": "owner",
          "type": "address"
        }
      ],
      "stateMutability": "nonpayable",
      "type": "constructor"
    },
    {
      "anonymous": false,
      "inputs": [
        {
          "indexed": true,
          "internalType": "address",
          "name": "owner",
          "type": "address"
        },
        {
          "indexed": true,
          "internalType": "address",
          "name": "approved",
          "type": "address"
        },
        {
          "indexed": true,
          "internalType": "uint256",
          "name": "tokenId",
          "type": "uint256"
        }
      ],
      "name": "Approval",
      "type": "event"
    },
    {
      "anonymous": false,
      "inputs": [
        {
          "indexed": true,
          "internalType": "address",
          "name": "owner",
          "type": "address"
        },
        {
          "indexed": true,
          "internalType": "address",
          "name": "operator",
          "type": "address"
        },
        {
          "indexed": false,
          "internalType": "bool",
          "name": "approved",
          "type": "bool"
        }
      ],
      "name": "ApprovalForAll",
      "type": "event"
    },
    {
      "anonymous": false,
      "inputs": [
        {
          "indexed": true,
          "internalType": "bytes32",
          "name": "role",
          "type": "bytes32"
        },
        {
          "indexed": true,
          "internalType": "bytes32",
          "name": "previousAdminRole",
          "type": "bytes32"
        },
        {
          "indexed": true,
          "internalType": "bytes32",
          "name": "newAdminRole",
          "type": "bytes32"
        }
      ],
      "name": "RoleAdminChanged",
      "type": "event"
    },
    {
      "anonymous": false,
      "inputs": [
        {
          "indexed": true,
          "internalType": "bytes32",
          "name": "role",
          "type": "bytes32"
        },
        {
          "indexed": true,
          "internalType": "address",
          "name": "account",
          "type": "address"
        },
        {
          "indexed": true,
          "internalType": "address",
          "name": "sender",
          "type": "address"
        }
      ],
      "name": "RoleGranted",
      "type": "event"
    },
    {
      "anonymous": false,
      "inputs": [
        {
          "indexed": true,
          "internalType": "bytes32",
          "name": "role",
          "type": "bytes32"
        },
        {
          "indexed": true,
          "internalType": "address",
          "name": "account",
          "type": "address"
        },
        {
          "indexed": true,
          "internalType": "address",
          "name": "sender",
          "type": "address"
        }
      ],
      "name": "RoleRevoked",
      "type": "event"
    },
    {
      "anonymous": false,
      "inputs": [
        {
          "indexed": true,
          "internalType": "address",
          "name": "from",
          "type": "address"
        },
        {
          "indexed": true,
          "internalType": "address",
          "name": "to",
          "type": "address"
        },
        {
          "indexed": true,
          "internalType": "uint256",
          "name": "tokenId",
          "type": "uint256"
        }
      ],
      "name": "Transfer",
      "type": "event"
    },
    {
      "inputs": [],
      "name": "DEFAULT_ADMIN_ROLE",
      "outputs": [
        {
          "internalType": "bytes32",
          "name": "",
          "type": "bytes32"
        }
      ],
      "stateMutability": "view",
      "type": "function",
      "constant": true
    },
    {
      "inputs": [],
      "name": "LIBRARIAN",
      "outputs": [
        {
          "internalType": "bytes32",
          "name": "",
          "type": "bytes32"
        }
      ],
      "stateMutability": "view",
      "type": "function",
      "constant": true
    },
    {
      "inputs": [
        {
          "internalType": "address",
          "name": "to",
          "type": "address"
        },
        {
          "internalType": "uint256",
          "name": "tokenId",
          "type": "uint256"
        }
      ],
      "name": "approve",
      "outputs": [],
      "stateMutability": "nonpayable",
      "type": "function"
    },
    {
      "inputs": [
        {
          "internalType": "uint256",
          "name": "",
          "type": "uint256"
        }
      ],
      "name": "attributes",
      "outputs": [
        {
          "internalType": "string",
          "name": "title",
          "type": "string"
        },
        {
          "internalType": "string",
          "name": "author",
          "type": "string"
        },
        {
          "internalType": "string",
          "name": "photoURL",
          "type": "string"
        },
        {
          "internalType": "string",
          "name": "synopsis",
          "type": "string"
        },
        {
          "internalType": "string",
          "name": "ISBN",
          "type": "string"
        }
      ],
      "stateMutability": "view",
      "type": "function",
      "constant": true
    },
    {
      "inputs": [
        {
          "internalType": "address",
          "name": "owner",
          "type": "address"
        }
      ],
      "name": "balanceOf",
      "outputs": [
        {
          "internalType": "uint256",
          "name": "",
          "type": "uint256"
        }
      ],
      "stateMutability": "view",
      "type": "function",
      "constant": true
    },
    {
      "inputs": [
        {
          "internalType": "uint256",
          "name": "tokenId",
          "type": "uint256"
        }
      ],
      "name": "getApproved",
      "outputs": [
        {
          "internalType": "address",
          "name": "",
          "type": "address"
        }
      ],
      "stateMutability": "view",
      "type": "function",
      "constant": true
    },
    {
      "inputs": [
        {
          "internalType": "bytes32",
          "name": "role",
          "type": "bytes32"
        }
      ],
      "name": "getRoleAdmin",
      "outputs": [
        {
          "internalType": "bytes32",
          "name": "",
          "type": "bytes32"
        }
      ],
      "stateMutability": "view",
      "type": "function",
      "constant": true
    },
    {
      "inputs": [
        {
          "internalType": "bytes32",
          "name": "role",
          "type": "bytes32"
        },
        {
          "internalType": "address",
          "name": "account",
          "type": "address"
        }
      ],
      "name": "grantRole",
      "outputs": [],
      "stateMutability": "nonpayable",
      "type": "function"
    },
    {
      "inputs": [
        {
          "internalType": "bytes32",
          "name": "role",
          "type": "bytes32"
        },
        {
          "internalType": "address",
          "name": "account",
          "type": "address"
        }
      ],
      "name": "hasRole",
      "outputs": [
        {
          "internalType": "bool",
          "name": "",
          "type": "bool"
        }
      ],
      "stateMutability": "view",
      "type": "function",
      "constant": true
    },
    {
      "inputs": [
        {
          "internalType": "address",
          "name": "owner",
          "type": "address"
        },
        {
          "internalType": "address",
          "name": "operator",
          "type": "address"
        }
      ],
      "name": "isApprovedForAll",
      "outputs": [
        {
          "internalType": "bool",
          "name": "",
          "type": "bool"
        }
      ],
      "stateMutability": "view",
      "type": "function",
      "constant": true
    },
    {
      "inputs": [],
      "name": "marketplaceAddress",
      "outputs": [
        {
          "internalType": "address",
          "name": "",
          "type": "address"
        }
      ],
      "stateMutability": "view",
      "type": "function",
      "constant": true
    },
    {
      "inputs": [],
      "name": "name",
      "outputs": [
        {
          "internalType": "string",
          "name": "",
          "type": "string"
        }
      ],
      "stateMutability": "view",
      "type": "function",
      "constant": true
    },
    {
      "inputs": [
        {
          "internalType": "uint256",
          "name": "tokenId",
          "type": "uint256"
        }
      ],
      "name": "ownerOf",
      "outputs": [
        {
          "internalType": "address",
          "name": "",
          "type": "address"
        }
      ],
      "stateMutability": "view",
      "type": "function",
      "constant": true
    },
    {
      "inputs": [
        {
          "internalType": "bytes32",
          "name": "role",
          "type": "bytes32"
        },
        {
          "internalType": "address",
          "name": "account",
          "type": "address"
        }
      ],
      "name": "renounceRole",
      "outputs": [],
      "stateMutability": "nonpayable",
      "type": "function"
    },
    {
      "inputs": [
        {
          "internalType": "bytes32",
          "name": "role",
          "type": "bytes32"
        },
        {
          "internalType": "address",
          "name": "account",
          "type": "address"
        }
      ],
      "name": "revokeRole",
      "outputs": [],
      "stateMutability": "nonpayable",
      "type": "function"
    },
    {
      "inputs": [
        {
          "internalType": "address",
          "name": "operator",
          "type": "address"
        },
        {
          "internalType": "bool",
          "name": "approved",
          "type": "bool"
        }
      ],
      "name": "setApprovalForAll",
      "outputs": [],
      "stateMutability": "nonpayable",
      "type": "function"
    },
    {
      "inputs": [],
      "name": "symbol",
      "outputs": [
        {
          "internalType": "string",
          "name": "",
          "type": "string"
        }
      ],
      "stateMutability": "view",
      "type": "function",
      "constant": true
    },
    {
      "inputs": [
        {
          "internalType": "uint256",
          "name": "index",
          "type": "uint256"
        }
      ],
      "name": "tokenByIndex",
      "outputs": [
        {
          "internalType": "uint256",
          "name": "",
          "type": "uint256"
        }
      ],
      "stateMutability": "view",
      "type": "function",
      "constant": true
    },
    {
      "inputs": [
        {
          "internalType": "address",
          "name": "owner",
          "type": "address"
        },
        {
          "internalType": "uint256",
          "name": "index",
          "type": "uint256"
        }
      ],
      "name": "tokenOfOwnerByIndex",
      "outputs": [
        {
          "internalType": "uint256",
          "name": "",
          "type": "uint256"
        }
      ],
      "stateMutability": "view",
      "type": "function",
      "constant": true
    },
    {
      "inputs": [],
      "name": "totalSupply",
      "outputs": [
        {
          "internalType": "uint256",
          "name": "",
          "type": "uint256"
        }
      ],
      "stateMutability": "view",
      "type": "function",
      "constant": true
    },
    {
      "inputs": [
        {
          "internalType": "address",
          "name": "_marketplaceAddress",
          "type": "address"
        }
      ],
      "name": "addMarketPlaceAddress",
      "outputs": [],
      "stateMutability": "nonpayable",
      "type": "function"
    },
    {
      "inputs": [
        {
          "internalType": "address",
          "name": "newAdmin",
          "type": "address"
        }
      ],
      "name": "addAdmin",
      "outputs": [
        {
          "internalType": "bool",
          "name": "",
          "type": "bool"
        }
      ],
      "stateMutability": "nonpayable",
      "type": "function"
    },
    {
      "inputs": [
        {
          "internalType": "address",
          "name": "newLibrarian",
          "type": "address"
        }
      ],
      "name": "addLibrarian",
      "outputs": [
        {
          "internalType": "bool",
          "name": "",
          "type": "bool"
        }
      ],
      "stateMutability": "nonpayable",
      "type": "function"
    },
    {
      "inputs": [],
      "name": "isLibrarian",
      "outputs": [
        {
          "internalType": "bool",
          "name": "",
          "type": "bool"
        }
      ],
      "stateMutability": "view",
      "type": "function",
      "constant": true
    },
    {
      "inputs": [
        {
          "internalType": "address",
          "name": "oldLibrarian",
          "type": "address"
        }
      ],
      "name": "revokeLibrarian",
      "outputs": [
        {
          "internalType": "bool",
          "name": "",
          "type": "bool"
        }
      ],
      "stateMutability": "nonpayable",
      "type": "function"
    },
    {
      "inputs": [
        {
          "internalType": "string",
          "name": "title",
          "type": "string"
        },
        {
          "internalType": "string",
          "name": "author",
          "type": "string"
        },
        {
          "internalType": "string",
          "name": "photoURL",
          "type": "string"
        },
        {
          "internalType": "string",
          "name": "synopsis",
          "type": "string"
        },
        {
          "internalType": "string",
          "name": "ISBN",
          "type": "string"
        }
      ],
      "name": "safeMint",
      "outputs": [],
      "stateMutability": "nonpayable",
      "type": "function"
    },
    {
      "inputs": [
        {
          "internalType": "uint256",
          "name": "tokenId",
          "type": "uint256"
        }
      ],
      "name": "tokenURI",
      "outputs": [
        {
          "internalType": "string",
          "name": "",
          "type": "string"
        }
      ],
      "stateMutability": "view",
      "type": "function",
      "constant": true
    },
    {
      "inputs": [
        {
          "internalType": "bytes4",
          "name": "interfaceId",
          "type": "bytes4"
        }
      ],
      "name": "supportsInterface",
      "outputs": [
        {
          "internalType": "bool",
          "name": "",
          "type": "bool"
        }
      ],
      "stateMutability": "view",
      "type": "function",
      "constant": true
    },
    {
      "inputs": [
        {
          "internalType": "address",
          "name": "from",
          "type": "address"
        },
        {
          "internalType": "address",
          "name": "to",
          "type": "address"
        },
        {
          "internalType": "uint256",
          "name": "tokenId",
          "type": "uint256"
        }
      ],
      "name": "safeTransferFrom",
      "outputs": [],
      "stateMutability": "nonpayable",
      "type": "function"
    },
    {
      "inputs": [
        {
          "internalType": "address",
          "name": "from",
          "type": "address"
        },
        {
          "internalType": "address",
          "name": "to",
          "type": "address"
        },
        {
          "internalType": "uint256",
          "name": "tokenId",
          "type": "uint256"
        },
        {
          "internalType": "bytes",
          "name": "_data",
          "type": "bytes"
        }
      ],
      "name": "safeTransferFrom",
      "outputs": [],
      "stateMutability": "nonpayable",
      "type": "function"
    },
    {
      "inputs": [
        {
          "internalType": "address",
          "name": "from",
          "type": "address"
        },
        {
          "internalType": "address",
          "name": "to",
          "type": "address"
        },
        {
          "internalType": "uint256",
          "name": "tokenId",
          "type": "uint256"
        }
      ],
      "name": "transferFrom",
      "outputs": [],
      "stateMutability": "nonpayable",
      "type": "function"
    }
  ],
  "bytecode": "0x60806040523480156200001157600080fd5b50604051620052513803806200525183398181016040528101906200003791906200045d565b6040518060400160405280600881526020017f4c6962726f4e46540000000000000000000000000000000000000000000000008152506040518060400160405280600581526020017f4c4942524f0000000000000000000000000000000000000000000000000000008152508160009080519060200190620000bb92919062000343565b508060019080519060200190620000d492919062000343565b505050620000ec6000801b826200015a60201b60201c565b6200011e7f318e0d99f5c898fe76545d6edd3bbf2ceea8ef1f22f2d106edb372a9e051598b826200015a60201b60201c565b620001537f318e0d99f5c898fe76545d6edd3bbf2ceea8ef1f22f2d106edb372a9e051598b6000801b6200024c60201b60201c565b50620004f4565b6200016c8282620002b060201b60201c565b62000248576001600b600084815260200190815260200160002060000160008373ffffffffffffffffffffffffffffffffffffffff1673ffffffffffffffffffffffffffffffffffffffff16815260200190815260200160002060006101000a81548160ff021916908315150217905550620001ed6200031b60201b60201c565b73ffffffffffffffffffffffffffffffffffffffff168173ffffffffffffffffffffffffffffffffffffffff16837f2f8788117e7eff1d82e926ec794901d17c78024a50270940304540a733656f0d60405160405180910390a45b5050565b60006200025f836200032360201b60201c565b905081600b6000858152602001908152602001600020600101819055508181847fbd79b86ffe0ab8e8776151514217cd7cacd52c909f66475c3af44e129f0b00ff60405160405180910390a4505050565b6000600b600084815260200190815260200160002060000160008373ffffffffffffffffffffffffffffffffffffffff1673ffffffffffffffffffffffffffffffffffffffff16815260200190815260200160002060009054906101000a900460ff16905092915050565b600033905090565b6000600b6000838152602001908152602001600020600101549050919050565b8280546200035190620004be565b90600052602060002090601f016020900481019282620003755760008555620003c1565b82601f106200039057805160ff1916838001178555620003c1565b82800160010185558215620003c1579182015b82811115620003c0578251825591602001919060010190620003a3565b5b509050620003d09190620003d4565b5090565b5b80821115620003ef576000816000905550600101620003d5565b5090565b600080fd5b600073ffffffffffffffffffffffffffffffffffffffff82169050919050565b60006200042582620003f8565b9050919050565b620004378162000418565b81146200044357600080fd5b50565b60008151905062000457816200042c565b92915050565b600060208284031215620004765762000475620003f3565b5b6000620004868482850162000446565b91505092915050565b7f4e487b7100000000000000000000000000000000000000000000000000000000600052602260045260246000fd5b60006002820490506001821680620004d757607f821691505b60208210811415620004ee57620004ed6200048f565b5b50919050565b614d4d80620005046000396000f3fe608060405234801561001057600080fd5b50600436106101e55760003560e01c8063704802751161010f578063b88d4fde116100a2578063daa17f4911610071578063daa17f49146105f0578063dcf1fb861461060e578063e985e9c51461062a578063efefa1401461065a576101e5565b8063b88d4fde14610554578063c87b56dd14610570578063d05dcc6a146105a0578063d547741f146105d4576101e5565b80639a1d40dd116100de5780639a1d40dd146104e0578063a217fddf146104fe578063a22cb4651461051c578063a43c9d9a14610538576101e5565b8063704802751461043257806370a082311461046257806391d148541461049257806395d89b41146104c2576101e5565b80632f2ff15d1161018757806342842e0e1161015657806342842e0e146103865780634f6ccce7146103a25780636352211e146103d2578063667c7beb14610402576101e5565b80632f2ff15d146102ee5780632f745c591461030a57806336568abe1461033a578063375ccd2b14610356576101e5565b8063095ea7b3116101c3578063095ea7b31461026857806318160ddd1461028457806323b872dd146102a2578063248a9ca3146102be576101e5565b806301ffc9a7146101ea57806306fdde031461021a578063081812fc14610238575b600080fd5b61020460048036038101906101ff9190613129565b610678565b6040516102119190613171565b60405180910390f35b61022261068a565b60405161022f9190613225565b60405180910390f35b610252600480360381019061024d919061327d565b61071c565b60405161025f91906132eb565b60405180910390f35b610282600480360381019061027d9190613332565b6107a1565b005b61028c6108b9565b6040516102999190613381565b60405180910390f35b6102bc60048036038101906102b7919061339c565b6108c6565b005b6102d860048036038101906102d39190613425565b610a1a565b6040516102e59190613461565b60405180910390f35b6103086004803603810190610303919061347c565b610a3a565b005b610324600480360381019061031f9190613332565b610a63565b6040516103319190613381565b60405180910390f35b610354600480360381019061034f919061347c565b610b08565b005b610370600480360381019061036b91906134bc565b610b8b565b60405161037d9190613171565b60405180910390f35b6103a0600480360381019061039b919061339c565b610bf3565b005b6103bc60048036038101906103b7919061327d565b610c13565b6040516103c99190613381565b60405180910390f35b6103ec60048036038101906103e7919061327d565b610c84565b6040516103f991906132eb565b60405180910390f35b61041c600480360381019061041791906134bc565b610d36565b6040516104299190613171565b60405180910390f35b61044c600480360381019061044791906134bc565b610deb565b6040516104599190613171565b60405180910390f35b61047c600480360381019061047791906134bc565b610e19565b6040516104899190613381565b60405180910390f35b6104ac60048036038101906104a7919061347c565b610ed1565b6040516104b99190613171565b60405180910390f35b6104ca610f3c565b6040516104d79190613225565b60405180910390f35b6104e8610fce565b6040516104f59190613171565b60405180910390f35b610506610fff565b6040516105139190613461565b60405180910390f35b61053660048036038101906105319190613515565b611006565b005b610552600480360381019061054d91906134bc565b61101c565b005b61056e6004803603810190610569919061368a565b6110a3565b005b61058a6004803603810190610585919061327d565b6111f9565b6040516105979190613225565b60405180910390f35b6105ba60048036038101906105b5919061327d565b6112a9565b6040516105cb95949392919061370d565b60405180910390f35b6105ee60048036038101906105e9919061347c565b611587565b005b6105f86115b0565b60405161060591906132eb565b60405180910390f35b61062860048036038101906106239190613824565b6115d6565b005b610644600480360381019061063f919061392b565b611848565b6040516106519190613171565b60405180910390f35b6106626118dc565b60405161066f9190613461565b60405180910390f35b600061068382611900565b9050919050565b6060600080546106999061399a565b80601f01602080910402602001604051908101604052809291908181526020018280546106c59061399a565b80156107125780601f106106e757610100808354040283529160200191610712565b820191906000526020600020905b8154815290600101906020018083116106f557829003601f168201915b5050505050905090565b60006107278261197a565b610766576040517f08c379a000000000000000000000000000000000000000000000000000000000815260040161075d90613a3e565b60405180910390fd5b6004600083815260200190815260200160002060009054906101000a900473ffffffffffffffffffffffffffffffffffffffff169050919050565b60006107ac82610c84565b90508073ffffffffffffffffffffffffffffffffffffffff168373ffffffffffffffffffffffffffffffffffffffff16141561081d576040517f08c379a000000000000000000000000000000000000000000000000000000000815260040161081490613ad0565b60405180910390fd5b8073ffffffffffffffffffffffffffffffffffffffff1661083c6119e6565b73ffffffffffffffffffffffffffffffffffffffff16148061086b575061086a816108656119e6565b611848565b5b6108aa576040517f08c379a00000000000000000000000000000000000000000000000000000000081526004016108a190613b62565b60405180910390fd5b6108b483836119ee565b505050565b6000600880549050905090565b600073ffffffffffffffffffffffffffffffffffffffff16600e60009054906101000a900473ffffffffffffffffffffffffffffffffffffffff1673ffffffffffffffffffffffffffffffffffffffff161415610958576040517f08c379a000000000000000000000000000000000000000000000000000000000815260040161094f90613bf4565b60405180910390fd5b600e60009054906101000a900473ffffffffffffffffffffffffffffffffffffffff1673ffffffffffffffffffffffffffffffffffffffff163373ffffffffffffffffffffffffffffffffffffffff16146109e8576040517f08c379a00000000000000000000000000000000000000000000000000000000081526004016109df90613c86565b60405180910390fd5b610a1583600e60009054906101000a900473ffffffffffffffffffffffffffffffffffffffff1683611aa7565b505050565b6000600b6000838152602001908152602001600020600101549050919050565b610a4382610a1a565b610a5481610a4f6119e6565b611b07565b610a5e8383611ba4565b505050565b6000610a6e83610e19565b8210610aaf576040517f08c379a0000000000000000000000000000000000000000000000000000000008152600401610aa690613d18565b60405180910390fd5b600660008473ffffffffffffffffffffffffffffffffffffffff1673ffffffffffffffffffffffffffffffffffffffff168152602001908152602001600020600083815260200190815260200160002054905092915050565b610b106119e6565b73ffffffffffffffffffffffffffffffffffffffff168173ffffffffffffffffffffffffffffffffffffffff1614610b7d576040517f08c379a0000000000000000000000000000000000000000000000000000000008152600401610b7490613daa565b60405180910390fd5b610b878282611c85565b5050565b60007f318e0d99f5c898fe76545d6edd3bbf2ceea8ef1f22f2d106edb372a9e051598b610bbf81610bba6119e6565b611b07565b610be97f318e0d99f5c898fe76545d6edd3bbf2ceea8ef1f22f2d106edb372a9e051598b84611ba4565b6001915050919050565b610c0e838383604051806020016040528060008152506110a3565b505050565b6000610c1d6108b9565b8210610c5e576040517f08c379a0000000000000000000000000000000000000000000000000000000008152600401610c5590613e3c565b60405180910390fd5b60088281548110610c7257610c71613e5c565b5b90600052602060002001549050919050565b6000806002600084815260200190815260200160002060009054906101000a900473ffffffffffffffffffffffffffffffffffffffff169050600073ffffffffffffffffffffffffffffffffffffffff168173ffffffffffffffffffffffffffffffffffffffff161415610d2d576040517f08c379a0000000000000000000000000000000000000000000000000000000008152600401610d2490613efd565b60405180910390fd5b80915050919050565b60007f318e0d99f5c898fe76545d6edd3bbf2ceea8ef1f22f2d106edb372a9e051598b610d6a81610d656119e6565b611b07565b610d776000801b84610ed1565b15610db7576040517f08c379a0000000000000000000000000000000000000000000000000000000008152600401610dae90613f8f565b60405180910390fd5b610de17f318e0d99f5c898fe76545d6edd3bbf2ceea8ef1f22f2d106edb372a9e051598b84611c85565b6001915050919050565b60008060001b610e0281610dfd6119e6565b611b07565b610e0f6000801b84611ba4565b6001915050919050565b60008073ffffffffffffffffffffffffffffffffffffffff168273ffffffffffffffffffffffffffffffffffffffff161415610e8a576040517f08c379a0000000000000000000000000000000000000000000000000000000008152600401610e8190614021565b60405180910390fd5b600360008373ffffffffffffffffffffffffffffffffffffffff1673ffffffffffffffffffffffffffffffffffffffff168152602001908152602001600020549050919050565b6000600b600084815260200190815260200160002060000160008373ffffffffffffffffffffffffffffffffffffffff1673ffffffffffffffffffffffffffffffffffffffff16815260200190815260200160002060009054906101000a900460ff16905092915050565b606060018054610f4b9061399a565b80601f0160208091040260200160405190810160405280929190818152602001828054610f779061399a565b8015610fc45780601f10610f9957610100808354040283529160200191610fc4565b820191906000526020600020905b815481529060010190602001808311610fa757829003601f168201915b5050505050905090565b6000610ffa7f318e0d99f5c898fe76545d6edd3bbf2ceea8ef1f22f2d106edb372a9e051598b33610ed1565b905090565b6000801b81565b6110186110116119e6565b8383611d67565b5050565b6000801b6110318161102c6119e6565b611b07565b81600e60006101000a81548173ffffffffffffffffffffffffffffffffffffffff021916908373ffffffffffffffffffffffffffffffffffffffff16021790555061109f600e60009054906101000a900473ffffffffffffffffffffffffffffffffffffffff166001611006565b5050565b600073ffffffffffffffffffffffffffffffffffffffff16600e60009054906101000a900473ffffffffffffffffffffffffffffffffffffffff1673ffffffffffffffffffffffffffffffffffffffff161415611135576040517f08c379a000000000000000000000000000000000000000000000000000000000815260040161112c90613bf4565b60405180910390fd5b600e60009054906101000a900473ffffffffffffffffffffffffffffffffffffffff1673ffffffffffffffffffffffffffffffffffffffff163373ffffffffffffffffffffffffffffffffffffffff16146111c5576040517f08c379a00000000000000000000000000000000000000000000000000000000081526004016111bc90613c86565b60405180910390fd5b6111f384600e60009054906101000a900473ffffffffffffffffffffffffffffffffffffffff168484611ed4565b50505050565b6060600061127f600c6000858152602001908152602001600020600001600c6000868152602001908152602001600020600201600c6000878152602001908152602001600020600301600c600088815260200190815260200160002060040160405160200161126b949392919061438c565b604051602081830303815290604052611f30565b90508060405160200161129291906144aa565b604051602081830303815290604052915050919050565b600c6020528060005260406000206000915090508060000180546112cc9061399a565b80601f01602080910402602001604051908101604052809291908181526020018280546112f89061399a565b80156113455780601f1061131a57610100808354040283529160200191611345565b820191906000526020600020905b81548152906001019060200180831161132857829003601f168201915b50505050509080600101805461135a9061399a565b80601f01602080910402602001604051908101604052809291908181526020018280546113869061399a565b80156113d35780601f106113a8576101008083540402835291602001916113d3565b820191906000526020600020905b8154815290600101906020018083116113b657829003601f168201915b5050505050908060020180546113e89061399a565b80601f01602080910402602001604051908101604052809291908181526020018280546114149061399a565b80156114615780601f1061143657610100808354040283529160200191611461565b820191906000526020600020905b81548152906001019060200180831161144457829003601f168201915b5050505050908060030180546114769061399a565b80601f01602080910402602001604051908101604052809291908181526020018280546114a29061399a565b80156114ef5780601f106114c4576101008083540402835291602001916114ef565b820191906000526020600020905b8154815290600101906020018083116114d257829003601f168201915b5050505050908060040180546115049061399a565b80601f01602080910402602001604051908101604052809291908181526020018280546115309061399a565b801561157d5780601f106115525761010080835404028352916020019161157d565b820191906000526020600020905b81548152906001019060200180831161156057829003601f168201915b5050505050905085565b61159082610a1a565b6115a18161159c6119e6565b611b07565b6115ab8383611c85565b505050565b600e60009054906101000a900473ffffffffffffffffffffffffffffffffffffffff1681565b7f318e0d99f5c898fe76545d6edd3bbf2ceea8ef1f22f2d106edb372a9e051598b611608816116036119e6565b611b07565b600073ffffffffffffffffffffffffffffffffffffffff16600e60009054906101000a900473ffffffffffffffffffffffffffffffffffffffff1673ffffffffffffffffffffffffffffffffffffffff16141561169a576040517f08c379a000000000000000000000000000000000000000000000000000000000815260040161169190613bf4565b60405180910390fd5b60006116a6600d6120a9565b90506116b2600d6120b7565b6116de600e60009054906101000a900473ffffffffffffffffffffffffffffffffffffffff16826120cd565b6000600e60009054906101000a900473ffffffffffffffffffffffffffffffffffffffff1690508073ffffffffffffffffffffffffffffffffffffffff16636dce424e836040518263ffffffff1660e01b815260040161173e9190613381565b600060405180830381600087803b15801561175857600080fd5b505af115801561176c573d6000803e3d6000fd5b505050506040518060a0016040528089815260200188815260200187815260200186815260200185815250600c600084815260200190815260200160002060008201518160000190805190602001906117c692919061301a565b5060208201518160010190805190602001906117e392919061301a565b50604082015181600201908051906020019061180092919061301a565b50606082015181600301908051906020019061181d92919061301a565b50608082015181600401908051906020019061183a92919061301a565b509050505050505050505050565b6000600560008473ffffffffffffffffffffffffffffffffffffffff1673ffffffffffffffffffffffffffffffffffffffff16815260200190815260200160002060008373ffffffffffffffffffffffffffffffffffffffff1673ffffffffffffffffffffffffffffffffffffffff16815260200190815260200160002060009054906101000a900460ff16905092915050565b7f318e0d99f5c898fe76545d6edd3bbf2ceea8ef1f22f2d106edb372a9e051598b81565b60007f7965db0b000000000000000000000000000000000000000000000000000000007bffffffffffffffffffffffffffffffffffffffffffffffffffffffff1916827bffffffffffffffffffffffffffffffffffffffffffffffffffffffff191614806119735750611972826120eb565b5b9050919050565b60008073ffffffffffffffffffffffffffffffffffffffff166002600084815260200190815260200160002060009054906101000a900473ffffffffffffffffffffffffffffffffffffffff1673ffffffffffffffffffffffffffffffffffffffff1614159050919050565b600033905090565b816004600083815260200190815260200160002060006101000a81548173ffffffffffffffffffffffffffffffffffffffff021916908373ffffffffffffffffffffffffffffffffffffffff160217905550808273ffffffffffffffffffffffffffffffffffffffff16611a6183610c84565b73ffffffffffffffffffffffffffffffffffffffff167f8c5be1e5ebec7d5bd14f71427d1e84f3dd0314c0f7b2291e5b200ac8c7c3b92560405160405180910390a45050565b611ab8611ab26119e6565b82612165565b611af7576040517f08c379a0000000000000000000000000000000000000000000000000000000008152600401611aee9061453e565b60405180910390fd5b611b02838383612243565b505050565b611b118282610ed1565b611ba057611b368173ffffffffffffffffffffffffffffffffffffffff16601461249f565b611b448360001c602061249f565b604051602001611b559291906145f6565b6040516020818303038152906040526040517f08c379a0000000000000000000000000000000000000000000000000000000008152600401611b979190613225565b60405180910390fd5b5050565b611bae8282610ed1565b611c81576001600b600084815260200190815260200160002060000160008373ffffffffffffffffffffffffffffffffffffffff1673ffffffffffffffffffffffffffffffffffffffff16815260200190815260200160002060006101000a81548160ff021916908315150217905550611c266119e6565b73ffffffffffffffffffffffffffffffffffffffff168173ffffffffffffffffffffffffffffffffffffffff16837f2f8788117e7eff1d82e926ec794901d17c78024a50270940304540a733656f0d60405160405180910390a45b5050565b611c8f8282610ed1565b15611d63576000600b600084815260200190815260200160002060000160008373ffffffffffffffffffffffffffffffffffffffff1673ffffffffffffffffffffffffffffffffffffffff16815260200190815260200160002060006101000a81548160ff021916908315150217905550611d086119e6565b73ffffffffffffffffffffffffffffffffffffffff168173ffffffffffffffffffffffffffffffffffffffff16837ff6391f5c32d9c69d2a47ea670b442974b53935d1edc7fd64eb21e047a839171b60405160405180910390a45b5050565b8173ffffffffffffffffffffffffffffffffffffffff168373ffffffffffffffffffffffffffffffffffffffff161415611dd6576040517f08c379a0000000000000000000000000000000000000000000000000000000008152600401611dcd9061467c565b60405180910390fd5b80600560008573ffffffffffffffffffffffffffffffffffffffff1673ffffffffffffffffffffffffffffffffffffffff16815260200190815260200160002060008473ffffffffffffffffffffffffffffffffffffffff1673ffffffffffffffffffffffffffffffffffffffff16815260200190815260200160002060006101000a81548160ff0219169083151502179055508173ffffffffffffffffffffffffffffffffffffffff168373ffffffffffffffffffffffffffffffffffffffff167f17307eab39ab6107e8899845ad3d59bd9653f200f220920489ca2b5937696c3183604051611ec79190613171565b60405180910390a3505050565b611edf848484612243565b611eeb848484846126db565b611f2a576040517f08c379a0000000000000000000000000000000000000000000000000000000008152600401611f219061470e565b60405180910390fd5b50505050565b6060600082511415611f53576040518060200160405280600081525090506120a4565b6000604051806060016040528060408152602001614cd86040913990506000600360028551611f82919061475d565b611f8c91906147e2565b6004611f989190614813565b90506000602082611fa9919061475d565b67ffffffffffffffff811115611fc257611fc161355f565b5b6040519080825280601f01601f191660200182016040528015611ff45781602001600182028036833780820191505090505b509050818152600183018586518101602084015b81831015612063576003830192508251603f8160121c168501518253600182019150603f81600c1c168501518253600182019150603f8160061c168501518253600182019150603f8116850151825360018201915050612008565b60038951066001811461207d576002811461208d57612098565b613d3d60f01b6002830352612098565b603d60f81b60018303525b50505050508093505050505b919050565b600081600001549050919050565b6001816000016000828254019250508190555050565b6120e7828260405180602001604052806000815250612863565b5050565b60007f780e9d63000000000000000000000000000000000000000000000000000000007bffffffffffffffffffffffffffffffffffffffffffffffffffffffff1916827bffffffffffffffffffffffffffffffffffffffffffffffffffffffff1916148061215e575061215d826128be565b5b9050919050565b60006121708261197a565b6121af576040517f08c379a00000000000000000000000000000000000000000000000000000000081526004016121a6906148df565b60405180910390fd5b60006121ba83610c84565b90508073ffffffffffffffffffffffffffffffffffffffff168473ffffffffffffffffffffffffffffffffffffffff16148061222957508373ffffffffffffffffffffffffffffffffffffffff166122118461071c565b73ffffffffffffffffffffffffffffffffffffffff16145b8061223a57506122398185611848565b5b91505092915050565b8273ffffffffffffffffffffffffffffffffffffffff1661226382610c84565b73ffffffffffffffffffffffffffffffffffffffff16146122b9576040517f08c379a00000000000000000000000000000000000000000000000000000000081526004016122b090614971565b60405180910390fd5b600073ffffffffffffffffffffffffffffffffffffffff168273ffffffffffffffffffffffffffffffffffffffff161415612329576040517f08c379a000000000000000000000000000000000000000000000000000000000815260040161232090614a03565b60405180910390fd5b6123348383836129a0565b61233f6000826119ee565b6001600360008573ffffffffffffffffffffffffffffffffffffffff1673ffffffffffffffffffffffffffffffffffffffff168152602001908152602001600020600082825461238f9190614a23565b925050819055506001600360008473ffffffffffffffffffffffffffffffffffffffff1673ffffffffffffffffffffffffffffffffffffffff16815260200190815260200160002060008282546123e6919061475d565b92505081905550816002600083815260200190815260200160002060006101000a81548173ffffffffffffffffffffffffffffffffffffffff021916908373ffffffffffffffffffffffffffffffffffffffff160217905550808273ffffffffffffffffffffffffffffffffffffffff168473ffffffffffffffffffffffffffffffffffffffff167fddf252ad1be2c89b69c2b068fc378daa952ba7f163c4a11628f55a4df523b3ef60405160405180910390a4505050565b6060600060028360026124b29190614813565b6124bc919061475d565b67ffffffffffffffff8111156124d5576124d461355f565b5b6040519080825280601f01601f1916602001820160405280156125075781602001600182028036833780820191505090505b5090507f30000000000000000000000000000000000000000000000000000000000000008160008151811061253f5761253e613e5c565b5b60200101907effffffffffffffffffffffffffffffffffffffffffffffffffffffffffffff1916908160001a9053507f7800000000000000000000000000000000000000000000000000000000000000816001815181106125a3576125a2613e5c565b5b60200101907effffffffffffffffffffffffffffffffffffffffffffffffffffffffffffff1916908160001a905350600060018460026125e39190614813565b6125ed919061475d565b90505b600181111561268d577f3031323334353637383961626364656600000000000000000000000000000000600f86166010811061262f5761262e613e5c565b5b1a60f81b82828151811061264657612645613e5c565b5b60200101907effffffffffffffffffffffffffffffffffffffffffffffffffffffffffffff1916908160001a905350600485901c94508061268690614a57565b90506125f0565b50600084146126d1576040517f08c379a00000000000000000000000000000000000000000000000000000000081526004016126c890614acd565b60405180910390fd5b8091505092915050565b60006126fc8473ffffffffffffffffffffffffffffffffffffffff166129b0565b15612856578373ffffffffffffffffffffffffffffffffffffffff1663150b7a026127256119e6565b8786866040518563ffffffff1660e01b81526004016127479493929190614b42565b6020604051808303816000875af192505050801561278357506040513d601f19601f820116820180604052508101906127809190614ba3565b60015b612806573d80600081146127b3576040519150601f19603f3d011682016040523d82523d6000602084013e6127b8565b606091505b506000815114156127fe576040517f08c379a00000000000000000000000000000000000000000000000000000000081526004016127f59061470e565b60405180910390fd5b805181602001fd5b63150b7a0260e01b7bffffffffffffffffffffffffffffffffffffffffffffffffffffffff1916817bffffffffffffffffffffffffffffffffffffffffffffffffffffffff19161491505061285b565b600190505b949350505050565b61286d83836129c3565b61287a60008484846126db565b6128b9576040517f08c379a00000000000000000000000000000000000000000000000000000000081526004016128b09061470e565b60405180910390fd5b505050565b60007f80ac58cd000000000000000000000000000000000000000000000000000000007bffffffffffffffffffffffffffffffffffffffffffffffffffffffff1916827bffffffffffffffffffffffffffffffffffffffffffffffffffffffff1916148061298957507f5b5e139f000000000000000000000000000000000000000000000000000000007bffffffffffffffffffffffffffffffffffffffffffffffffffffffff1916827bffffffffffffffffffffffffffffffffffffffffffffffffffffffff1916145b80612999575061299882612b91565b5b9050919050565b6129ab838383612bfb565b505050565b600080823b905060008111915050919050565b600073ffffffffffffffffffffffffffffffffffffffff168273ffffffffffffffffffffffffffffffffffffffff161415612a33576040517f08c379a0000000000000000000000000000000000000000000000000000000008152600401612a2a90614c1c565b60405180910390fd5b612a3c8161197a565b15612a7c576040517f08c379a0000000000000000000000000000000000000000000000000000000008152600401612a7390614c88565b60405180910390fd5b612a88600083836129a0565b6001600360008473ffffffffffffffffffffffffffffffffffffffff1673ffffffffffffffffffffffffffffffffffffffff1681526020019081526020016000206000828254612ad8919061475d565b92505081905550816002600083815260200190815260200160002060006101000a81548173ffffffffffffffffffffffffffffffffffffffff021916908373ffffffffffffffffffffffffffffffffffffffff160217905550808273ffffffffffffffffffffffffffffffffffffffff16600073ffffffffffffffffffffffffffffffffffffffff167fddf252ad1be2c89b69c2b068fc378daa952ba7f163c4a11628f55a4df523b3ef60405160405180910390a45050565b60007f01ffc9a7000000000000000000000000000000000000000000000000000000007bffffffffffffffffffffffffffffffffffffffffffffffffffffffff1916827bffffffffffffffffffffffffffffffffffffffffffffffffffffffff1916149050919050565b612c06838383612d0f565b600073ffffffffffffffffffffffffffffffffffffffff168373ffffffffffffffffffffffffffffffffffffffff161415612c4957612c4481612d14565b612c88565b8173ffffffffffffffffffffffffffffffffffffffff168373ffffffffffffffffffffffffffffffffffffffff1614612c8757612c868382612d5d565b5b5b600073ffffffffffffffffffffffffffffffffffffffff168273ffffffffffffffffffffffffffffffffffffffff161415612ccb57612cc681612eca565b612d0a565b8273ffffffffffffffffffffffffffffffffffffffff168273ffffffffffffffffffffffffffffffffffffffff1614612d0957612d088282612f9b565b5b5b505050565b505050565b6008805490506009600083815260200190815260200160002081905550600881908060018154018082558091505060019003906000526020600020016000909190919091505550565b60006001612d6a84610e19565b612d749190614a23565b9050600060076000848152602001908152602001600020549050818114612e59576000600660008673ffffffffffffffffffffffffffffffffffffffff1673ffffffffffffffffffffffffffffffffffffffff168152602001908152602001600020600084815260200190815260200160002054905080600660008773ffffffffffffffffffffffffffffffffffffffff1673ffffffffffffffffffffffffffffffffffffffff168152602001908152602001600020600084815260200190815260200160002081905550816007600083815260200190815260200160002081905550505b6007600084815260200190815260200160002060009055600660008573ffffffffffffffffffffffffffffffffffffffff1673ffffffffffffffffffffffffffffffffffffffff16815260200190815260200160002060008381526020019081526020016000206000905550505050565b60006001600880549050612ede9190614a23565b9050600060096000848152602001908152602001600020549050600060088381548110612f0e57612f0d613e5c565b5b906000526020600020015490508060088381548110612f3057612f2f613e5c565b5b906000526020600020018190555081600960008381526020019081526020016000208190555060096000858152602001908152602001600020600090556008805480612f7f57612f7e614ca8565b5b6001900381819060005260206000200160009055905550505050565b6000612fa683610e19565b905081600660008573ffffffffffffffffffffffffffffffffffffffff1673ffffffffffffffffffffffffffffffffffffffff168152602001908152602001600020600083815260200190815260200160002081905550806007600084815260200190815260200160002081905550505050565b8280546130269061399a565b90600052602060002090601f016020900481019282613048576000855561308f565b82601f1061306157805160ff191683800117855561308f565b8280016001018555821561308f579182015b8281111561308e578251825591602001919060010190613073565b5b50905061309c91906130a0565b5090565b5b808211156130b95760008160009055506001016130a1565b5090565b6000604051905090565b600080fd5b600080fd5b60007fffffffff0000000000000000000000000000000000000000000000000000000082169050919050565b613106816130d1565b811461311157600080fd5b50565b600081359050613123816130fd565b92915050565b60006020828403121561313f5761313e6130c7565b5b600061314d84828501613114565b91505092915050565b60008115159050919050565b61316b81613156565b82525050565b60006020820190506131866000830184613162565b92915050565b600081519050919050565b600082825260208201905092915050565b60005b838110156131c65780820151818401526020810190506131ab565b838111156131d5576000848401525b50505050565b6000601f19601f8301169050919050565b60006131f78261318c565b6132018185613197565b93506132118185602086016131a8565b61321a816131db565b840191505092915050565b6000602082019050818103600083015261323f81846131ec565b905092915050565b6000819050919050565b61325a81613247565b811461326557600080fd5b50565b60008135905061327781613251565b92915050565b600060208284031215613293576132926130c7565b5b60006132a184828501613268565b91505092915050565b600073ffffffffffffffffffffffffffffffffffffffff82169050919050565b60006132d5826132aa565b9050919050565b6132e5816132ca565b82525050565b600060208201905061330060008301846132dc565b92915050565b61330f816132ca565b811461331a57600080fd5b50565b60008135905061332c81613306565b92915050565b60008060408385031215613349576133486130c7565b5b60006133578582860161331d565b925050602061336885828601613268565b9150509250929050565b61337b81613247565b82525050565b60006020820190506133966000830184613372565b92915050565b6000806000606084860312156133b5576133b46130c7565b5b60006133c38682870161331d565b93505060206133d48682870161331d565b92505060406133e586828701613268565b9150509250925092565b6000819050919050565b613402816133ef565b811461340d57600080fd5b50565b60008135905061341f816133f9565b92915050565b60006020828403121561343b5761343a6130c7565b5b600061344984828501613410565b91505092915050565b61345b816133ef565b82525050565b60006020820190506134766000830184613452565b92915050565b60008060408385031215613493576134926130c7565b5b60006134a185828601613410565b92505060206134b28582860161331d565b9150509250929050565b6000602082840312156134d2576134d16130c7565b5b60006134e08482850161331d565b91505092915050565b6134f281613156565b81146134fd57600080fd5b50565b60008135905061350f816134e9565b92915050565b6000806040838503121561352c5761352b6130c7565b5b600061353a8582860161331d565b925050602061354b85828601613500565b9150509250929050565b600080fd5b600080fd5b7f4e487b7100000000000000000000000000000000000000000000000000000000600052604160045260246000fd5b613597826131db565b810181811067ffffffffffffffff821117156135b6576135b561355f565b5b80604052505050565b60006135c96130bd565b90506135d5828261358e565b919050565b600067ffffffffffffffff8211156135f5576135f461355f565b5b6135fe826131db565b9050602081019050919050565b82818337600083830152505050565b600061362d613628846135da565b6135bf565b9050828152602081018484840111156136495761364861355a565b5b61365484828561360b565b509392505050565b600082601f83011261367157613670613555565b5b813561368184826020860161361a565b91505092915050565b600080600080608085870312156136a4576136a36130c7565b5b60006136b28782880161331d565b94505060206136c38782880161331d565b93505060406136d487828801613268565b925050606085013567ffffffffffffffff8111156136f5576136f46130cc565b5b6137018782880161365c565b91505092959194509250565b600060a082019050818103600083015261372781886131ec565b9050818103602083015261373b81876131ec565b9050818103604083015261374f81866131ec565b9050818103606083015261376381856131ec565b9050818103608083015261377781846131ec565b90509695505050505050565b600067ffffffffffffffff82111561379e5761379d61355f565b5b6137a7826131db565b9050602081019050919050565b60006137c76137c284613783565b6135bf565b9050828152602081018484840111156137e3576137e261355a565b5b6137ee84828561360b565b509392505050565b600082601f83011261380b5761380a613555565b5b813561381b8482602086016137b4565b91505092915050565b600080600080600060a086880312156138405761383f6130c7565b5b600086013567ffffffffffffffff81111561385e5761385d6130cc565b5b61386a888289016137f6565b955050602086013567ffffffffffffffff81111561388b5761388a6130cc565b5b613897888289016137f6565b945050604086013567ffffffffffffffff8111156138b8576138b76130cc565b5b6138c4888289016137f6565b935050606086013567ffffffffffffffff8111156138e5576138e46130cc565b5b6138f1888289016137f6565b925050608086013567ffffffffffffffff811115613912576139116130cc565b5b61391e888289016137f6565b9150509295509295909350565b60008060408385031215613942576139416130c7565b5b60006139508582860161331d565b92505060206139618582860161331d565b9150509250929050565b7f4e487b7100000000000000000000000000000000000000000000000000000000600052602260045260246000fd5b600060028204905060018216806139b257607f821691505b602082108114156139c6576139c561396b565b5b50919050565b7f4552433732313a20617070726f76656420717565727920666f72206e6f6e657860008201527f697374656e7420746f6b656e0000000000000000000000000000000000000000602082015250565b6000613a28602c83613197565b9150613a33826139cc565b604082019050919050565b60006020820190508181036000830152613a5781613a1b565b9050919050565b7f4552433732313a20617070726f76616c20746f2063757272656e74206f776e6560008201527f7200000000000000000000000000000000000000000000000000000000000000602082015250565b6000613aba602183613197565b9150613ac582613a5e565b604082019050919050565b60006020820190508181036000830152613ae981613aad565b9050919050565b7f4552433732313a20617070726f76652063616c6c6572206973206e6f74206f7760008201527f6e6572206e6f7220617070726f76656420666f7220616c6c0000000000000000602082015250565b6000613b4c603883613197565b9150613b5782613af0565b604082019050919050565b60006020820190508181036000830152613b7b81613b3f565b9050919050565b7f5469656e6520717565206578697374697220756e206d61726b6574706c61636560008201527f4164647265737300000000000000000000000000000000000000000000000000602082015250565b6000613bde602783613197565b9150613be982613b82565b604082019050919050565b60006020820190508181036000830152613c0d81613bd1565b9050919050565b7f536f6c6f207075656465206861626572207472616e73666572656e636961732060008201527f656e747265206d61726b6574706c616365416464726573730000000000000000602082015250565b6000613c70603883613197565b9150613c7b82613c14565b604082019050919050565b60006020820190508181036000830152613c9f81613c63565b9050919050565b7f455243373231456e756d657261626c653a206f776e657220696e646578206f7560008201527f74206f6620626f756e6473000000000000000000000000000000000000000000602082015250565b6000613d02602b83613197565b9150613d0d82613ca6565b604082019050919050565b60006020820190508181036000830152613d3181613cf5565b9050919050565b7f416363657373436f6e74726f6c3a2063616e206f6e6c792072656e6f756e636560008201527f20726f6c657320666f722073656c660000000000000000000000000000000000602082015250565b6000613d94602f83613197565b9150613d9f82613d38565b604082019050919050565b60006020820190508181036000830152613dc381613d87565b9050919050565b7f455243373231456e756d657261626c653a20676c6f62616c20696e646578206f60008201527f7574206f6620626f756e64730000000000000000000000000000000000000000602082015250565b6000613e26602c83613197565b9150613e3182613dca565b604082019050919050565b60006020820190508181036000830152613e5581613e19565b9050919050565b7f4e487b7100000000000000000000000000000000000000000000000000000000600052603260045260246000fd5b7f4552433732313a206f776e657220717565727920666f72206e6f6e657869737460008201527f656e7420746f6b656e0000000000000000000000000000000000000000000000602082015250565b6000613ee7602983613197565b9150613ef282613e8b565b604082019050919050565b60006020820190508181036000830152613f1681613eda565b9050919050565b7f4e6f20736520707565646520656c696d696e617220616c20737570657261646d60008201527f696e000000000000000000000000000000000000000000000000000000000000602082015250565b6000613f79602283613197565b9150613f8482613f1d565b604082019050919050565b60006020820190508181036000830152613fa881613f6c565b9050919050565b7f4552433732313a2062616c616e636520717565727920666f7220746865207a6560008201527f726f206164647265737300000000000000000000000000000000000000000000602082015250565b600061400b602a83613197565b915061401682613faf565b604082019050919050565b6000602082019050818103600083015261403a81613ffe565b9050919050565b600081905092915050565b7f7b226e616d65223a202200000000000000000000000000000000000000000000600082015250565b6000614082600a83614041565b915061408d8261404c565b600a82019050919050565b60008190508160005260206000209050919050565b600081546140ba8161399a565b6140c48186614041565b945060018216600081146140df57600181146140f057614123565b60ff19831686528186019350614123565b6140f985614098565b60005b8381101561411b578154818901526001820191506020810190506140fc565b838801955050505b50505092915050565b7f222c000000000000000000000000000000000000000000000000000000000000600082015250565b6000614162600283614041565b915061416d8261412c565b600282019050919050565b7f22696d6167655f64617461223a20220000000000000000000000000000000000600082015250565b60006141ae600f83614041565b91506141b982614178565b600f82019050919050565b7f2261747472696275746573223a205b7b2274726169745f74797065223a20227360008201527f796e6f70736973222c202276616c7565223a2022000000000000000000000000602082015250565b6000614220603483614041565b915061422b826141c4565b603482019050919050565b7f227d2c0000000000000000000000000000000000000000000000000000000000600082015250565b600061426c600383614041565b915061427782614236565b600382019050919050565b7f7b2274726169745f74797065223a20224953424e222c202276616c7565223a2060008201527f2200000000000000000000000000000000000000000000000000000000000000602082015250565b60006142de602183614041565b91506142e982614282565b602182019050919050565b7f227d000000000000000000000000000000000000000000000000000000000000600082015250565b600061432a600283614041565b9150614335826142f4565b600282019050919050565b7f5d7d000000000000000000000000000000000000000000000000000000000000600082015250565b6000614376600283614041565b915061438182614340565b600282019050919050565b600061439782614075565b91506143a382876140ad565b91506143ae82614155565b91506143b9826141a1565b91506143c582866140ad565b91506143d082614155565b91506143db82614213565b91506143e782856140ad565b91506143f28261425f565b91506143fd826142d1565b915061440982846140ad565b91506144148261431d565b915061441f82614369565b915081905095945050505050565b7f646174613a6170706c69636174696f6e2f6a736f6e3b6261736536342c000000600082015250565b6000614463601d83614041565b915061446e8261442d565b601d82019050919050565b60006144848261318c565b61448e8185614041565b935061449e8185602086016131a8565b80840191505092915050565b60006144b582614456565b91506144c18284614479565b915081905092915050565b7f4552433732313a207472616e736665722063616c6c6572206973206e6f74206f60008201527f776e6572206e6f7220617070726f766564000000000000000000000000000000602082015250565b6000614528603183613197565b9150614533826144cc565b604082019050919050565b600060208201905081810360008301526145578161451b565b9050919050565b7f416363657373436f6e74726f6c3a206163636f756e7420000000000000000000600082015250565b6000614594601783614041565b915061459f8261455e565b601782019050919050565b7f206973206d697373696e6720726f6c6520000000000000000000000000000000600082015250565b60006145e0601183614041565b91506145eb826145aa565b601182019050919050565b600061460182614587565b915061460d8285614479565b9150614618826145d3565b91506146248284614479565b91508190509392505050565b7f4552433732313a20617070726f766520746f2063616c6c657200000000000000600082015250565b6000614666601983613197565b915061467182614630565b602082019050919050565b6000602082019050818103600083015261469581614659565b9050919050565b7f4552433732313a207472616e7366657220746f206e6f6e20455243373231526560008201527f63656976657220696d706c656d656e7465720000000000000000000000000000602082015250565b60006146f8603283613197565b91506147038261469c565b604082019050919050565b60006020820190508181036000830152614727816146eb565b9050919050565b7f4e487b7100000000000000000000000000000000000000000000000000000000600052601160045260246000fd5b600061476882613247565b915061477383613247565b9250827fffffffffffffffffffffffffffffffffffffffffffffffffffffffffffffffff038211156147a8576147a761472e565b5b828201905092915050565b7f4e487b7100000000000000000000000000000000000000000000000000000000600052601260045260246000fd5b60006147ed82613247565b91506147f883613247565b925082614808576148076147b3565b5b828204905092915050565b600061481e82613247565b915061482983613247565b9250817fffffffffffffffffffffffffffffffffffffffffffffffffffffffffffffffff04831182151516156148625761486161472e565b5b828202905092915050565b7f4552433732313a206f70657261746f7220717565727920666f72206e6f6e657860008201527f697374656e7420746f6b656e0000000000000000000000000000000000000000602082015250565b60006148c9602c83613197565b91506148d48261486d565b604082019050919050565b600060208201905081810360008301526148f8816148bc565b9050919050565b7f4552433732313a207472616e73666572206f6620746f6b656e2074686174206960008201527f73206e6f74206f776e0000000000000000000000000000000000000000000000602082015250565b600061495b602983613197565b9150614966826148ff565b604082019050919050565b6000602082019050818103600083015261498a8161494e565b9050919050565b7f4552433732313a207472616e7366657220746f20746865207a65726f2061646460008201527f7265737300000000000000000000000000000000000000000000000000000000602082015250565b60006149ed602483613197565b91506149f882614991565b604082019050919050565b60006020820190508181036000830152614a1c816149e0565b9050919050565b6000614a2e82613247565b9150614a3983613247565b925082821015614a4c57614a4b61472e565b5b828203905092915050565b6000614a6282613247565b91506000821415614a7657614a7561472e565b5b600182039050919050565b7f537472696e67733a20686578206c656e67746820696e73756666696369656e74600082015250565b6000614ab7602083613197565b9150614ac282614a81565b602082019050919050565b60006020820190508181036000830152614ae681614aaa565b9050919050565b600081519050919050565b600082825260208201905092915050565b6000614b1482614aed565b614b1e8185614af8565b9350614b2e8185602086016131a8565b614b37816131db565b840191505092915050565b6000608082019050614b5760008301876132dc565b614b6460208301866132dc565b614b716040830185613372565b8181036060830152614b838184614b09565b905095945050505050565b600081519050614b9d816130fd565b92915050565b600060208284031215614bb957614bb86130c7565b5b6000614bc784828501614b8e565b91505092915050565b7f4552433732313a206d696e7420746f20746865207a65726f2061646472657373600082015250565b6000614c06602083613197565b9150614c1182614bd0565b602082019050919050565b60006020820190508181036000830152614c3581614bf9565b9050919050565b7f4552433732313a20746f6b656e20616c7265616479206d696e74656400000000600082015250565b6000614c72601c83613197565b9150614c7d82614c3c565b602082019050919050565b60006020820190508181036000830152614ca181614c65565b9050919050565b7f4e487b7100000000000000000000000000000000000000000000000000000000600052603160045260246000fdfe4142434445464748494a4b4c4d4e4f505152535455565758595a6162636465666768696a6b6c6d6e6f707172737475767778797a303132333435363738392b2fa2646970667358221220b8147cd40a76cf927776e2c05c659fdc94c4b8a978ad97e3b689e33d73efa42364736f6c634300080a0033",
  "immutableReferences": {},
  "source": "// SPDX-License-Identifier: MIT\n\npragma solidity ^0.8.10;\n\nimport \"@openzeppelin/contracts/access/AccessControl.sol\";\nimport \"@openzeppelin/contracts/token/ERC721/ERC721.sol\";\nimport \"@openzeppelin/contracts/token/ERC721/extensions/ERC721URIStorage.sol\";\nimport \"@openzeppelin/contracts/token/ERC721/extensions/ERC721Enumerable.sol\";\n// import \"@openzeppelin/contracts/token/ERC721/extensions/ERC721Burnable.sol\";\nimport \"@openzeppelin/contracts/utils/Strings.sol\";\nimport \"@openzeppelin/contracts/utils/Counters.sol\";\nimport \"./library/base64.sol\";\nimport \"./Marketplace.sol\";\n\ncontract LibroNFT is ERC721, ERC721Enumerable, ERC721URIStorage, AccessControl {\n    using Counters for Counters.Counter;\n\n    struct Attr {\n        string title;\n        string author;\n        string photoURL;\n        string synopsis;\n        string ISBN;\n    }\n\n    mapping(uint256 => Attr) public attributes;\n\n    Counters.Counter private _tokenIdCounter;\n\n    bytes32 public constant LIBRARIAN = keccak256(\"LIBRARIAN\");\n\n    address public marketplaceAddress;\n\n    //address owner,string memory name, string memory symbol) ERC721(name, symbol)\n    constructor(address owner) ERC721(\"LibroNFT\", \"LIBRO\") {\n        _grantRole(DEFAULT_ADMIN_ROLE, owner);\n\n        _grantRole(LIBRARIAN, owner);\n        _setRoleAdmin(LIBRARIAN, DEFAULT_ADMIN_ROLE);\n    }\n\n    function addMarketPlaceAddress(address _marketplaceAddress)\n        public\n        onlyRole(DEFAULT_ADMIN_ROLE)\n    {\n        marketplaceAddress = _marketplaceAddress;\n        setApprovalForAll(marketplaceAddress, true);\n    }\n\n    function addAdmin(address newAdmin)\n        public\n        virtual\n        onlyRole(DEFAULT_ADMIN_ROLE)\n        returns (bool)\n    {\n        _grantRole(DEFAULT_ADMIN_ROLE, newAdmin);\n        return true;\n    }\n\n    function addLibrarian(address newLibrarian)\n        public\n        virtual\n        onlyRole(LIBRARIAN)\n        returns (bool)\n    {\n        _grantRole(LIBRARIAN, newLibrarian);\n        return true;\n    }\n\n    function isLibrarian() public view returns (bool) {\n        return hasRole(LIBRARIAN, msg.sender);\n    }\n\n    function revokeLibrarian(address oldLibrarian)\n        public\n        virtual\n        onlyRole(LIBRARIAN)\n        returns (bool)\n    {\n        require(\n            !hasRole(DEFAULT_ADMIN_ROLE, oldLibrarian),\n            \"No se puede eliminar al superadmin\"\n        );\n        _revokeRole(LIBRARIAN, oldLibrarian);\n        return true;\n    }\n\n    function safeMint(\n        string memory title,\n        string memory author,\n        string memory photoURL,\n        string memory synopsis,\n        string memory ISBN\n    ) public onlyRole(LIBRARIAN) {\n        require(\n            marketplaceAddress != address(0),\n            \"Tiene que existir un marketplaceAddress\"\n        );\n        uint256 tokenId = _tokenIdCounter.current();\n        _tokenIdCounter.increment();\n        _safeMint(marketplaceAddress, tokenId);\n\n        Marketplace market = Marketplace(marketplaceAddress);\n        market.addBook(tokenId);\n\n        attributes[tokenId] = Attr(title, author, photoURL, synopsis, ISBN);\n        // _setTokenURI(tokenId, uri);\n    }\n\n    // The following functions are overrides required by Solidity.\n\n    //La keyword \"super\" hace referencia al objeto padre que se encuentre de derecha a izquierda, en este caso ERC721URIStorage\n    function _burn(uint256 tokenId)\n        internal\n        override(ERC721, ERC721URIStorage)\n        onlyRole(LIBRARIAN)\n    {\n        super._burn(tokenId);\n    }\n\n    function tokenURI(uint256 tokenId)\n        public\n        view\n        override(ERC721, ERC721URIStorage)\n        returns (string memory)\n    {\n        string memory json = Base64.encode(\n            bytes(\n                string(\n                    abi.encodePacked(\n                        '{\"name\": \"',\n                        attributes[tokenId].title,\n                        '\",',\n                        '\"image_data\": \"',\n                        attributes[tokenId].photoURL,\n                        '\",',\n                        '\"attributes\": [{\"trait_type\": \"synopsis\", \"value\": \"',\n                        attributes[tokenId].synopsis,\n                        '\"},',\n                        '{\"trait_type\": \"ISBN\", \"value\": \"',\n                        attributes[tokenId].ISBN,\n                        '\"}',\n                        \"]}\"\n                    )\n                )\n            )\n        );\n        return string(abi.encodePacked(\"data:application/json;base64,\", json));\n    }\n\n    function _beforeTokenTransfer(\n        address from,\n        address to,\n        uint256 tokenId\n    ) internal override(ERC721, ERC721Enumerable) {\n        super._beforeTokenTransfer(from, to, tokenId);\n    }\n\n    function supportsInterface(bytes4 interfaceId)\n        public\n        view\n        override(ERC721, ERC721Enumerable, AccessControl)\n        returns (bool)\n    {\n        return super.supportsInterface(interfaceId);\n    }\n\n    function safeTransferFrom(\n        address from,\n        address to,\n        uint256 tokenId,\n        bytes memory _data\n    ) public virtual override(ERC721) {\n        require(\n            marketplaceAddress != address(0),\n            \"Tiene que existir un marketplaceAddress\"\n        );\n        require(\n            msg.sender == marketplaceAddress,\n            \"Solo puede haber transferencias entre marketplaceAddress\"\n        );\n        to;\n        super._safeTransfer(from, marketplaceAddress, tokenId, _data);\n    }\n\n    function transferFrom(\n        address from,\n        address to,\n        uint256 tokenId\n    ) public virtual override(ERC721) {\n        require(\n            marketplaceAddress != address(0),\n            \"Tiene que existir un marketplaceAddress\"\n        );\n        require(\n            msg.sender == marketplaceAddress,\n            \"Solo puede haber transferencias entre marketplaceAddress\"\n        );\n        to;\n        super.transferFrom(from, marketplaceAddress, tokenId);\n    }\n}\n",
  "sourcePath": "C:\\Users\\Axel\\Desktop\\biblioDApp\\contracts\\LibroNFT.sol",
  "compiler": {
    "name": "solc",
    "version": "0.8.10+commit.fc410830.Emscripten.clang"
  },
  "schemaVersion": "3.4.3",
  "updatedAt": "2022-01-25T18:05:35.294Z",
  "networkType": "ethereum",
  "devdoc": {
    "kind": "dev",
    "methods": {
      "approve(address,uint256)": {
        "details": "See {IERC721-approve}."
      },
      "balanceOf(address)": {
        "details": "See {IERC721-balanceOf}."
      },
      "getApproved(uint256)": {
        "details": "See {IERC721-getApproved}."
      },
      "getRoleAdmin(bytes32)": {
        "details": "Returns the admin role that controls `role`. See {grantRole} and {revokeRole}. To change a role's admin, use {_setRoleAdmin}."
      },
      "grantRole(bytes32,address)": {
        "details": "Grants `role` to `account`. If `account` had not been already granted `role`, emits a {RoleGranted} event. Requirements: - the caller must have ``role``'s admin role."
      },
      "hasRole(bytes32,address)": {
        "details": "Returns `true` if `account` has been granted `role`."
      },
      "isApprovedForAll(address,address)": {
        "details": "See {IERC721-isApprovedForAll}."
      },
      "name()": {
        "details": "See {IERC721Metadata-name}."
      },
      "ownerOf(uint256)": {
        "details": "See {IERC721-ownerOf}."
      },
      "renounceRole(bytes32,address)": {
        "details": "Revokes `role` from the calling account. Roles are often managed via {grantRole} and {revokeRole}: this function's purpose is to provide a mechanism for accounts to lose their privileges if they are compromised (such as when a trusted device is misplaced). If the calling account had been revoked `role`, emits a {RoleRevoked} event. Requirements: - the caller must be `account`."
      },
      "revokeRole(bytes32,address)": {
        "details": "Revokes `role` from `account`. If `account` had been granted `role`, emits a {RoleRevoked} event. Requirements: - the caller must have ``role``'s admin role."
      },
      "safeTransferFrom(address,address,uint256)": {
        "details": "See {IERC721-safeTransferFrom}."
      },
      "safeTransferFrom(address,address,uint256,bytes)": {
        "details": "See {IERC721-safeTransferFrom}."
      },
      "setApprovalForAll(address,bool)": {
        "details": "See {IERC721-setApprovalForAll}."
      },
      "symbol()": {
        "details": "See {IERC721Metadata-symbol}."
      },
      "tokenByIndex(uint256)": {
        "details": "See {IERC721Enumerable-tokenByIndex}."
      },
      "tokenOfOwnerByIndex(address,uint256)": {
        "details": "See {IERC721Enumerable-tokenOfOwnerByIndex}."
      },
      "totalSupply()": {
        "details": "See {IERC721Enumerable-totalSupply}."
      },
      "transferFrom(address,address,uint256)": {
        "details": "See {IERC721-transferFrom}."
      }
    },
    "version": 1
  },
  "userdoc": {
    "kind": "user",
    "methods": {},
    "version": 1
  }
}