{
  "contractName": "LibroNFT",
  "abi": [
    {
      "inputs": [
        {
          "internalType": "address",
          "name": "owner",
          "type": "address"
        }
      ],
      "stateMutability": "nonpayable",
      "type": "constructor"
    },
    {
      "anonymous": false,
      "inputs": [
        {
          "indexed": true,
          "internalType": "address",
          "name": "owner",
          "type": "address"
        },
        {
          "indexed": true,
          "internalType": "address",
          "name": "approved",
          "type": "address"
        },
        {
          "indexed": true,
          "internalType": "uint256",
          "name": "tokenId",
          "type": "uint256"
        }
      ],
      "name": "Approval",
      "type": "event"
    },
    {
      "anonymous": false,
      "inputs": [
        {
          "indexed": true,
          "internalType": "address",
          "name": "owner",
          "type": "address"
        },
        {
          "indexed": true,
          "internalType": "address",
          "name": "operator",
          "type": "address"
        },
        {
          "indexed": false,
          "internalType": "bool",
          "name": "approved",
          "type": "bool"
        }
      ],
      "name": "ApprovalForAll",
      "type": "event"
    },
    {
      "anonymous": false,
      "inputs": [
        {
          "indexed": true,
          "internalType": "bytes32",
          "name": "role",
          "type": "bytes32"
        },
        {
          "indexed": true,
          "internalType": "bytes32",
          "name": "previousAdminRole",
          "type": "bytes32"
        },
        {
          "indexed": true,
          "internalType": "bytes32",
          "name": "newAdminRole",
          "type": "bytes32"
        }
      ],
      "name": "RoleAdminChanged",
      "type": "event"
    },
    {
      "anonymous": false,
      "inputs": [
        {
          "indexed": true,
          "internalType": "bytes32",
          "name": "role",
          "type": "bytes32"
        },
        {
          "indexed": true,
          "internalType": "address",
          "name": "account",
          "type": "address"
        },
        {
          "indexed": true,
          "internalType": "address",
          "name": "sender",
          "type": "address"
        }
      ],
      "name": "RoleGranted",
      "type": "event"
    },
    {
      "anonymous": false,
      "inputs": [
        {
          "indexed": true,
          "internalType": "bytes32",
          "name": "role",
          "type": "bytes32"
        },
        {
          "indexed": true,
          "internalType": "address",
          "name": "account",
          "type": "address"
        },
        {
          "indexed": true,
          "internalType": "address",
          "name": "sender",
          "type": "address"
        }
      ],
      "name": "RoleRevoked",
      "type": "event"
    },
    {
      "anonymous": false,
      "inputs": [
        {
          "indexed": true,
          "internalType": "address",
          "name": "from",
          "type": "address"
        },
        {
          "indexed": true,
          "internalType": "address",
          "name": "to",
          "type": "address"
        },
        {
          "indexed": true,
          "internalType": "uint256",
          "name": "tokenId",
          "type": "uint256"
        }
      ],
      "name": "Transfer",
      "type": "event"
    },
    {
      "inputs": [],
      "name": "DEFAULT_ADMIN_ROLE",
      "outputs": [
        {
          "internalType": "bytes32",
          "name": "",
          "type": "bytes32"
        }
      ],
      "stateMutability": "view",
      "type": "function",
      "constant": true
    },
    {
      "inputs": [],
      "name": "LIBRARIAN",
      "outputs": [
        {
          "internalType": "bytes32",
          "name": "",
          "type": "bytes32"
        }
      ],
      "stateMutability": "view",
      "type": "function",
      "constant": true
    },
    {
      "inputs": [
        {
          "internalType": "address",
          "name": "to",
          "type": "address"
        },
        {
          "internalType": "uint256",
          "name": "tokenId",
          "type": "uint256"
        }
      ],
      "name": "approve",
      "outputs": [],
      "stateMutability": "nonpayable",
      "type": "function"
    },
    {
      "inputs": [
        {
          "internalType": "uint256",
          "name": "",
          "type": "uint256"
        }
      ],
      "name": "attributes",
      "outputs": [
        {
          "internalType": "string",
          "name": "title",
          "type": "string"
        },
        {
          "internalType": "string",
          "name": "author",
          "type": "string"
        },
        {
          "internalType": "string",
          "name": "photoURL",
          "type": "string"
        },
        {
          "internalType": "string",
          "name": "synopsis",
          "type": "string"
        },
        {
          "internalType": "string",
          "name": "ISBN",
          "type": "string"
        }
      ],
      "stateMutability": "view",
      "type": "function",
      "constant": true
    },
    {
      "inputs": [
        {
          "internalType": "address",
          "name": "owner",
          "type": "address"
        }
      ],
      "name": "balanceOf",
      "outputs": [
        {
          "internalType": "uint256",
          "name": "",
          "type": "uint256"
        }
      ],
      "stateMutability": "view",
      "type": "function",
      "constant": true
    },
    {
      "inputs": [
        {
          "internalType": "uint256",
          "name": "tokenId",
          "type": "uint256"
        }
      ],
      "name": "getApproved",
      "outputs": [
        {
          "internalType": "address",
          "name": "",
          "type": "address"
        }
      ],
      "stateMutability": "view",
      "type": "function",
      "constant": true
    },
    {
      "inputs": [
        {
          "internalType": "bytes32",
          "name": "role",
          "type": "bytes32"
        }
      ],
      "name": "getRoleAdmin",
      "outputs": [
        {
          "internalType": "bytes32",
          "name": "",
          "type": "bytes32"
        }
      ],
      "stateMutability": "view",
      "type": "function",
      "constant": true
    },
    {
      "inputs": [
        {
          "internalType": "bytes32",
          "name": "role",
          "type": "bytes32"
        },
        {
          "internalType": "address",
          "name": "account",
          "type": "address"
        }
      ],
      "name": "grantRole",
      "outputs": [],
      "stateMutability": "nonpayable",
      "type": "function"
    },
    {
      "inputs": [
        {
          "internalType": "bytes32",
          "name": "role",
          "type": "bytes32"
        },
        {
          "internalType": "address",
          "name": "account",
          "type": "address"
        }
      ],
      "name": "hasRole",
      "outputs": [
        {
          "internalType": "bool",
          "name": "",
          "type": "bool"
        }
      ],
      "stateMutability": "view",
      "type": "function",
      "constant": true
    },
    {
      "inputs": [
        {
          "internalType": "address",
          "name": "owner",
          "type": "address"
        },
        {
          "internalType": "address",
          "name": "operator",
          "type": "address"
        }
      ],
      "name": "isApprovedForAll",
      "outputs": [
        {
          "internalType": "bool",
          "name": "",
          "type": "bool"
        }
      ],
      "stateMutability": "view",
      "type": "function",
      "constant": true
    },
    {
      "inputs": [],
      "name": "marketplaceAddress",
      "outputs": [
        {
          "internalType": "address",
          "name": "",
          "type": "address"
        }
      ],
      "stateMutability": "view",
      "type": "function",
      "constant": true
    },
    {
      "inputs": [],
      "name": "name",
      "outputs": [
        {
          "internalType": "string",
          "name": "",
          "type": "string"
        }
      ],
      "stateMutability": "view",
      "type": "function",
      "constant": true
    },
    {
      "inputs": [
        {
          "internalType": "uint256",
          "name": "tokenId",
          "type": "uint256"
        }
      ],
      "name": "ownerOf",
      "outputs": [
        {
          "internalType": "address",
          "name": "",
          "type": "address"
        }
      ],
      "stateMutability": "view",
      "type": "function",
      "constant": true
    },
    {
      "inputs": [
        {
          "internalType": "bytes32",
          "name": "role",
          "type": "bytes32"
        },
        {
          "internalType": "address",
          "name": "account",
          "type": "address"
        }
      ],
      "name": "renounceRole",
      "outputs": [],
      "stateMutability": "nonpayable",
      "type": "function"
    },
    {
      "inputs": [
        {
          "internalType": "bytes32",
          "name": "role",
          "type": "bytes32"
        },
        {
          "internalType": "address",
          "name": "account",
          "type": "address"
        }
      ],
      "name": "revokeRole",
      "outputs": [],
      "stateMutability": "nonpayable",
      "type": "function"
    },
    {
      "inputs": [
        {
          "internalType": "address",
          "name": "operator",
          "type": "address"
        },
        {
          "internalType": "bool",
          "name": "approved",
          "type": "bool"
        }
      ],
      "name": "setApprovalForAll",
      "outputs": [],
      "stateMutability": "nonpayable",
      "type": "function"
    },
    {
      "inputs": [],
      "name": "symbol",
      "outputs": [
        {
          "internalType": "string",
          "name": "",
          "type": "string"
        }
      ],
      "stateMutability": "view",
      "type": "function",
      "constant": true
    },
    {
      "inputs": [
        {
          "internalType": "uint256",
          "name": "index",
          "type": "uint256"
        }
      ],
      "name": "tokenByIndex",
      "outputs": [
        {
          "internalType": "uint256",
          "name": "",
          "type": "uint256"
        }
      ],
      "stateMutability": "view",
      "type": "function",
      "constant": true
    },
    {
      "inputs": [
        {
          "internalType": "address",
          "name": "owner",
          "type": "address"
        },
        {
          "internalType": "uint256",
          "name": "index",
          "type": "uint256"
        }
      ],
      "name": "tokenOfOwnerByIndex",
      "outputs": [
        {
          "internalType": "uint256",
          "name": "",
          "type": "uint256"
        }
      ],
      "stateMutability": "view",
      "type": "function",
      "constant": true
    },
    {
      "inputs": [],
      "name": "totalSupply",
      "outputs": [
        {
          "internalType": "uint256",
          "name": "",
          "type": "uint256"
        }
      ],
      "stateMutability": "view",
      "type": "function",
      "constant": true
    },
    {
      "inputs": [
        {
          "internalType": "address",
          "name": "_marketplaceAddress",
          "type": "address"
        }
      ],
      "name": "addMarketPlaceAddress",
      "outputs": [],
      "stateMutability": "nonpayable",
      "type": "function"
    },
    {
      "inputs": [
        {
          "internalType": "address",
          "name": "newAdmin",
          "type": "address"
        }
      ],
      "name": "addAdmin",
      "outputs": [
        {
          "internalType": "bool",
          "name": "",
          "type": "bool"
        }
      ],
      "stateMutability": "nonpayable",
      "type": "function"
    },
    {
      "inputs": [
        {
          "internalType": "address",
          "name": "newLibrarian",
          "type": "address"
        }
      ],
      "name": "addLibrarian",
      "outputs": [
        {
          "internalType": "bool",
          "name": "",
          "type": "bool"
        }
      ],
      "stateMutability": "nonpayable",
      "type": "function"
    },
    {
      "inputs": [
        {
          "internalType": "address",
          "name": "_address",
          "type": "address"
        }
      ],
      "name": "isLibrarian",
      "outputs": [
        {
          "internalType": "bool",
          "name": "",
          "type": "bool"
        }
      ],
      "stateMutability": "view",
      "type": "function",
      "constant": true
    },
    {
      "inputs": [
        {
          "internalType": "address",
          "name": "oldLibrarian",
          "type": "address"
        }
      ],
      "name": "revokeLibrarian",
      "outputs": [
        {
          "internalType": "bool",
          "name": "",
          "type": "bool"
        }
      ],
      "stateMutability": "nonpayable",
      "type": "function"
    },
    {
      "inputs": [
        {
          "internalType": "string",
          "name": "title",
          "type": "string"
        },
        {
          "internalType": "string",
          "name": "author",
          "type": "string"
        },
        {
          "internalType": "string",
          "name": "photoURL",
          "type": "string"
        },
        {
          "internalType": "string",
          "name": "synopsis",
          "type": "string"
        },
        {
          "internalType": "string",
          "name": "ISBN",
          "type": "string"
        }
      ],
      "name": "safeMint",
      "outputs": [],
      "stateMutability": "nonpayable",
      "type": "function"
    },
    {
      "inputs": [
        {
          "internalType": "uint256",
          "name": "tokenId",
          "type": "uint256"
        }
      ],
      "name": "tokenURI",
      "outputs": [
        {
          "internalType": "string",
          "name": "",
          "type": "string"
        }
      ],
      "stateMutability": "view",
      "type": "function",
      "constant": true
    },
    {
      "inputs": [
        {
          "internalType": "bytes4",
          "name": "interfaceId",
          "type": "bytes4"
        }
      ],
      "name": "supportsInterface",
      "outputs": [
        {
          "internalType": "bool",
          "name": "",
          "type": "bool"
        }
      ],
      "stateMutability": "view",
      "type": "function",
      "constant": true
    },
    {
      "inputs": [
        {
          "internalType": "address",
          "name": "from",
          "type": "address"
        },
        {
          "internalType": "address",
          "name": "to",
          "type": "address"
        },
        {
          "internalType": "uint256",
          "name": "tokenId",
          "type": "uint256"
        }
      ],
      "name": "safeTransferFrom",
      "outputs": [],
      "stateMutability": "nonpayable",
      "type": "function"
    },
    {
      "inputs": [
        {
          "internalType": "address",
          "name": "from",
          "type": "address"
        },
        {
          "internalType": "address",
          "name": "to",
          "type": "address"
        },
        {
          "internalType": "uint256",
          "name": "tokenId",
          "type": "uint256"
        },
        {
          "internalType": "bytes",
          "name": "_data",
          "type": "bytes"
        }
      ],
      "name": "safeTransferFrom",
      "outputs": [],
      "stateMutability": "nonpayable",
      "type": "function"
    },
    {
      "inputs": [
        {
          "internalType": "address",
          "name": "from",
          "type": "address"
        },
        {
          "internalType": "address",
          "name": "to",
          "type": "address"
        },
        {
          "internalType": "uint256",
          "name": "tokenId",
          "type": "uint256"
        }
      ],
      "name": "transferFrom",
      "outputs": [],
      "stateMutability": "nonpayable",
      "type": "function"
    },
    {
      "inputs": [
        {
          "internalType": "uint256",
          "name": "_tokenID",
          "type": "uint256"
        }
      ],
      "name": "existTokenID",
      "outputs": [
        {
          "internalType": "bool",
          "name": "",
          "type": "bool"
        }
      ],
      "stateMutability": "view",
      "type": "function",
      "constant": true
    }
  ],
  "bytecode": "0x60806040523480156200001157600080fd5b506040516200544d3803806200544d83398181016040528101906200003791906200045d565b6040518060400160405280600881526020017f4c6962726f4e46540000000000000000000000000000000000000000000000008152506040518060400160405280600581526020017f4c4942524f0000000000000000000000000000000000000000000000000000008152508160009080519060200190620000bb92919062000343565b508060019080519060200190620000d492919062000343565b505050620000ec6000801b826200015a60201b60201c565b6200011e7f318e0d99f5c898fe76545d6edd3bbf2ceea8ef1f22f2d106edb372a9e051598b826200015a60201b60201c565b620001537f318e0d99f5c898fe76545d6edd3bbf2ceea8ef1f22f2d106edb372a9e051598b6000801b6200024c60201b60201c565b50620004f4565b6200016c8282620002b060201b60201c565b62000248576001600b600084815260200190815260200160002060000160008373ffffffffffffffffffffffffffffffffffffffff1673ffffffffffffffffffffffffffffffffffffffff16815260200190815260200160002060006101000a81548160ff021916908315150217905550620001ed6200031b60201b60201c565b73ffffffffffffffffffffffffffffffffffffffff168173ffffffffffffffffffffffffffffffffffffffff16837f2f8788117e7eff1d82e926ec794901d17c78024a50270940304540a733656f0d60405160405180910390a45b5050565b60006200025f836200032360201b60201c565b905081600b6000858152602001908152602001600020600101819055508181847fbd79b86ffe0ab8e8776151514217cd7cacd52c909f66475c3af44e129f0b00ff60405160405180910390a4505050565b6000600b600084815260200190815260200160002060000160008373ffffffffffffffffffffffffffffffffffffffff1673ffffffffffffffffffffffffffffffffffffffff16815260200190815260200160002060009054906101000a900460ff16905092915050565b600033905090565b6000600b6000838152602001908152602001600020600101549050919050565b8280546200035190620004be565b90600052602060002090601f016020900481019282620003755760008555620003c1565b82601f106200039057805160ff1916838001178555620003c1565b82800160010185558215620003c1579182015b82811115620003c0578251825591602001919060010190620003a3565b5b509050620003d09190620003d4565b5090565b5b80821115620003ef576000816000905550600101620003d5565b5090565b600080fd5b600073ffffffffffffffffffffffffffffffffffffffff82169050919050565b60006200042582620003f8565b9050919050565b620004378162000418565b81146200044357600080fd5b50565b60008151905062000457816200042c565b92915050565b600060208284031215620004765762000475620003f3565b5b6000620004868482850162000446565b91505092915050565b7f4e487b7100000000000000000000000000000000000000000000000000000000600052602260045260246000fd5b60006002820490506001821680620004d757607f821691505b60208210811415620004ee57620004ed6200048f565b5b50919050565b614f4980620005046000396000f3fe608060405234801561001057600080fd5b50600436106101f05760003560e01c806370a082311161010f578063c8204ee5116100a2578063daa17f4911610071578063daa17f491461063d578063dcf1fb861461065b578063e985e9c514610677578063efefa140146106a7576101f0565b8063c8204ee51461058d578063c87b56dd146105bd578063d05dcc6a146105ed578063d547741f14610621576101f0565b8063a217fddf116100de578063a217fddf1461051b578063a22cb46514610539578063a43c9d9a14610555578063b88d4fde14610571576101f0565b806370a082311461046d5780638691e05f1461049d57806391d14854146104cd57806395d89b41146104fd576101f0565b80632f745c59116101875780634f6ccce7116101565780634f6ccce7146103ad5780636352211e146103dd578063667c7beb1461040d578063704802751461043d576101f0565b80632f745c591461031557806336568abe14610345578063375ccd2b1461036157806342842e0e14610391576101f0565b806318160ddd116101c357806318160ddd1461028f57806323b872dd146102ad578063248a9ca3146102c95780632f2ff15d146102f9576101f0565b806301ffc9a7146101f557806306fdde0314610225578063081812fc14610243578063095ea7b314610273575b600080fd5b61020f600480360381019061020a9190613267565b6106c5565b60405161021c91906132af565b60405180910390f35b61022d6106d7565b60405161023a9190613363565b60405180910390f35b61025d600480360381019061025891906133bb565b610769565b60405161026a9190613429565b60405180910390f35b61028d60048036038101906102889190613470565b6107ee565b005b610297610906565b6040516102a491906134bf565b60405180910390f35b6102c760048036038101906102c291906134da565b610913565b005b6102e360048036038101906102de9190613563565b610ac9565b6040516102f0919061359f565b60405180910390f35b610313600480360381019061030e91906135ba565b610ae9565b005b61032f600480360381019061032a9190613470565b610b12565b60405161033c91906134bf565b60405180910390f35b61035f600480360381019061035a91906135ba565b610bb7565b005b61037b600480360381019061037691906135fa565b610c3a565b60405161038891906132af565b60405180910390f35b6103ab60048036038101906103a691906134da565b610ca2565b005b6103c760048036038101906103c291906133bb565b610cc2565b6040516103d491906134bf565b60405180910390f35b6103f760048036038101906103f291906133bb565b610d33565b6040516104049190613429565b60405180910390f35b610427600480360381019061042291906135fa565b610de5565b60405161043491906132af565b60405180910390f35b610457600480360381019061045291906135fa565b610e9a565b60405161046491906132af565b60405180910390f35b610487600480360381019061048291906135fa565b610ec8565b60405161049491906134bf565b60405180910390f35b6104b760048036038101906104b291906135fa565b610f80565b6040516104c491906132af565b60405180910390f35b6104e760048036038101906104e291906135ba565b610fb3565b6040516104f491906132af565b60405180910390f35b61050561101e565b6040516105129190613363565b60405180910390f35b6105236110b0565b604051610530919061359f565b60405180910390f35b610553600480360381019061054e9190613653565b6110b7565b005b61056f600480360381019061056a91906135fa565b6110cd565b005b61058b600480360381019061058691906137c8565b611154565b005b6105a760048036038101906105a291906133bb565b61130c565b6040516105b491906132af565b60405180910390f35b6105d760048036038101906105d291906133bb565b61131e565b6040516105e49190613363565b60405180910390f35b610607600480360381019061060291906133bb565b6113e5565b60405161061895949392919061384b565b60405180910390f35b61063b600480360381019061063691906135ba565b6116c3565b005b6106456116ec565b6040516106529190613429565b60405180910390f35b61067560048036038101906106709190613962565b611712565b005b610691600480360381019061068c9190613a69565b611986565b60405161069e91906132af565b60405180910390f35b6106af611a1a565b6040516106bc919061359f565b60405180910390f35b60006106d082611a3e565b9050919050565b6060600080546106e690613ad8565b80601f016020809104026020016040519081016040528092919081815260200182805461071290613ad8565b801561075f5780601f106107345761010080835404028352916020019161075f565b820191906000526020600020905b81548152906001019060200180831161074257829003601f168201915b5050505050905090565b600061077482611ab8565b6107b3576040517f08c379a00000000000000000000000000000000000000000000000000000000081526004016107aa90613b7c565b60405180910390fd5b6004600083815260200190815260200160002060009054906101000a900473ffffffffffffffffffffffffffffffffffffffff169050919050565b60006107f982610d33565b90508073ffffffffffffffffffffffffffffffffffffffff168373ffffffffffffffffffffffffffffffffffffffff16141561086a576040517f08c379a000000000000000000000000000000000000000000000000000000000815260040161086190613c0e565b60405180910390fd5b8073ffffffffffffffffffffffffffffffffffffffff16610889611b24565b73ffffffffffffffffffffffffffffffffffffffff1614806108b857506108b7816108b2611b24565b611986565b5b6108f7576040517f08c379a00000000000000000000000000000000000000000000000000000000081526004016108ee90613ca0565b60405180910390fd5b6109018383611b2c565b505050565b6000600880549050905090565b600073ffffffffffffffffffffffffffffffffffffffff16600e60009054906101000a900473ffffffffffffffffffffffffffffffffffffffff1673ffffffffffffffffffffffffffffffffffffffff1614156109a5576040517f08c379a000000000000000000000000000000000000000000000000000000000815260040161099c90613d32565b60405180910390fd5b600e60009054906101000a900473ffffffffffffffffffffffffffffffffffffffff1673ffffffffffffffffffffffffffffffffffffffff163373ffffffffffffffffffffffffffffffffffffffff1614610a35576040517f08c379a0000000000000000000000000000000000000000000000000000000008152600401610a2c90613dc4565b60405180910390fd5b600e60009054906101000a900473ffffffffffffffffffffffffffffffffffffffff1673ffffffffffffffffffffffffffffffffffffffff168373ffffffffffffffffffffffffffffffffffffffff1614610ab957610ab883600e60009054906101000a900473ffffffffffffffffffffffffffffffffffffffff166001611be5565b5b610ac4838383611d52565b505050565b6000600b6000838152602001908152602001600020600101549050919050565b610af282610ac9565b610b0381610afe611b24565b611db2565b610b0d8383611e4f565b505050565b6000610b1d83610ec8565b8210610b5e576040517f08c379a0000000000000000000000000000000000000000000000000000000008152600401610b5590613e56565b60405180910390fd5b600660008473ffffffffffffffffffffffffffffffffffffffff1673ffffffffffffffffffffffffffffffffffffffff168152602001908152602001600020600083815260200190815260200160002054905092915050565b610bbf611b24565b73ffffffffffffffffffffffffffffffffffffffff168173ffffffffffffffffffffffffffffffffffffffff1614610c2c576040517f08c379a0000000000000000000000000000000000000000000000000000000008152600401610c2390613ee8565b60405180910390fd5b610c368282611f30565b5050565b60007f318e0d99f5c898fe76545d6edd3bbf2ceea8ef1f22f2d106edb372a9e051598b610c6e81610c69611b24565b611db2565b610c987f318e0d99f5c898fe76545d6edd3bbf2ceea8ef1f22f2d106edb372a9e051598b84611e4f565b6001915050919050565b610cbd83838360405180602001604052806000815250611154565b505050565b6000610ccc610906565b8210610d0d576040517f08c379a0000000000000000000000000000000000000000000000000000000008152600401610d0490613f7a565b60405180910390fd5b60088281548110610d2157610d20613f9a565b5b90600052602060002001549050919050565b6000806002600084815260200190815260200160002060009054906101000a900473ffffffffffffffffffffffffffffffffffffffff169050600073ffffffffffffffffffffffffffffffffffffffff168173ffffffffffffffffffffffffffffffffffffffff161415610ddc576040517f08c379a0000000000000000000000000000000000000000000000000000000008152600401610dd39061403b565b60405180910390fd5b80915050919050565b60007f318e0d99f5c898fe76545d6edd3bbf2ceea8ef1f22f2d106edb372a9e051598b610e1981610e14611b24565b611db2565b610e266000801b84610fb3565b15610e66576040517f08c379a0000000000000000000000000000000000000000000000000000000008152600401610e5d906140cd565b60405180910390fd5b610e907f318e0d99f5c898fe76545d6edd3bbf2ceea8ef1f22f2d106edb372a9e051598b84611f30565b6001915050919050565b60008060001b610eb181610eac611b24565b611db2565b610ebe6000801b84611e4f565b6001915050919050565b60008073ffffffffffffffffffffffffffffffffffffffff168273ffffffffffffffffffffffffffffffffffffffff161415610f39576040517f08c379a0000000000000000000000000000000000000000000000000000000008152600401610f309061415f565b60405180910390fd5b600360008373ffffffffffffffffffffffffffffffffffffffff1673ffffffffffffffffffffffffffffffffffffffff168152602001908152602001600020549050919050565b6000610fac7f318e0d99f5c898fe76545d6edd3bbf2ceea8ef1f22f2d106edb372a9e051598b83610fb3565b9050919050565b6000600b600084815260200190815260200160002060000160008373ffffffffffffffffffffffffffffffffffffffff1673ffffffffffffffffffffffffffffffffffffffff16815260200190815260200160002060009054906101000a900460ff16905092915050565b60606001805461102d90613ad8565b80601f016020809104026020016040519081016040528092919081815260200182805461105990613ad8565b80156110a65780601f1061107b576101008083540402835291602001916110a6565b820191906000526020600020905b81548152906001019060200180831161108957829003601f168201915b5050505050905090565b6000801b81565b6110c96110c2611b24565b8383611be5565b5050565b6000801b6110e2816110dd611b24565b611db2565b81600e60006101000a81548173ffffffffffffffffffffffffffffffffffffffff021916908373ffffffffffffffffffffffffffffffffffffffff160217905550611150600e60009054906101000a900473ffffffffffffffffffffffffffffffffffffffff1660016110b7565b5050565b600073ffffffffffffffffffffffffffffffffffffffff16600e60009054906101000a900473ffffffffffffffffffffffffffffffffffffffff1673ffffffffffffffffffffffffffffffffffffffff1614156111e6576040517f08c379a00000000000000000000000000000000000000000000000000000000081526004016111dd90613d32565b60405180910390fd5b600e60009054906101000a900473ffffffffffffffffffffffffffffffffffffffff1673ffffffffffffffffffffffffffffffffffffffff163373ffffffffffffffffffffffffffffffffffffffff1614611276576040517f08c379a000000000000000000000000000000000000000000000000000000000815260040161126d90613dc4565b60405180910390fd5b600e60009054906101000a900473ffffffffffffffffffffffffffffffffffffffff1673ffffffffffffffffffffffffffffffffffffffff168473ffffffffffffffffffffffffffffffffffffffff16146112fa576112f984600e60009054906101000a900473ffffffffffffffffffffffffffffffffffffffff166001611be5565b5b61130684848484612012565b50505050565b600061131782611ab8565b9050919050565b606060006113bb600c6000858152602001908152602001600020600001600c6000868152602001908152602001600020600201600c6000878152602001908152602001600020600301600c6000888152602001908152602001600020600401600c60008981526020019081526020016000206001016040516020016113a795949392919061453c565b60405160208183030381529060405261206e565b9050806040516020016113ce919061467d565b604051602081830303815290604052915050919050565b600c60205280600052604060002060009150905080600001805461140890613ad8565b80601f016020809104026020016040519081016040528092919081815260200182805461143490613ad8565b80156114815780601f1061145657610100808354040283529160200191611481565b820191906000526020600020905b81548152906001019060200180831161146457829003601f168201915b50505050509080600101805461149690613ad8565b80601f01602080910402602001604051908101604052809291908181526020018280546114c290613ad8565b801561150f5780601f106114e45761010080835404028352916020019161150f565b820191906000526020600020905b8154815290600101906020018083116114f257829003601f168201915b50505050509080600201805461152490613ad8565b80601f016020809104026020016040519081016040528092919081815260200182805461155090613ad8565b801561159d5780601f106115725761010080835404028352916020019161159d565b820191906000526020600020905b81548152906001019060200180831161158057829003601f168201915b5050505050908060030180546115b290613ad8565b80601f01602080910402602001604051908101604052809291908181526020018280546115de90613ad8565b801561162b5780601f106116005761010080835404028352916020019161162b565b820191906000526020600020905b81548152906001019060200180831161160e57829003601f168201915b50505050509080600401805461164090613ad8565b80601f016020809104026020016040519081016040528092919081815260200182805461166c90613ad8565b80156116b95780601f1061168e576101008083540402835291602001916116b9565b820191906000526020600020905b81548152906001019060200180831161169c57829003601f168201915b5050505050905085565b6116cc82610ac9565b6116dd816116d8611b24565b611db2565b6116e78383611f30565b505050565b600e60009054906101000a900473ffffffffffffffffffffffffffffffffffffffff1681565b7f318e0d99f5c898fe76545d6edd3bbf2ceea8ef1f22f2d106edb372a9e051598b6117448161173f611b24565b611db2565b600073ffffffffffffffffffffffffffffffffffffffff16600e60009054906101000a900473ffffffffffffffffffffffffffffffffffffffff1673ffffffffffffffffffffffffffffffffffffffff1614156117d6576040517f08c379a00000000000000000000000000000000000000000000000000000000081526004016117cd90613d32565b60405180910390fd5b60006117e2600d6121e7565b90506117ee600d6121f5565b61181a600e60009054906101000a900473ffffffffffffffffffffffffffffffffffffffff168261220b565b6000600e60009054906101000a900473ffffffffffffffffffffffffffffffffffffffff1690508073ffffffffffffffffffffffffffffffffffffffff166339f56e6483336040518363ffffffff1660e01b815260040161187c92919061469f565b600060405180830381600087803b15801561189657600080fd5b505af11580156118aa573d6000803e3d6000fd5b505050506040518060a0016040528089815260200188815260200187815260200186815260200185815250600c60008481526020019081526020016000206000820151816000019080519060200190611904929190613158565b506020820151816001019080519060200190611921929190613158565b50604082015181600201908051906020019061193e929190613158565b50606082015181600301908051906020019061195b929190613158565b506080820151816004019080519060200190611978929190613158565b509050505050505050505050565b6000600560008473ffffffffffffffffffffffffffffffffffffffff1673ffffffffffffffffffffffffffffffffffffffff16815260200190815260200160002060008373ffffffffffffffffffffffffffffffffffffffff1673ffffffffffffffffffffffffffffffffffffffff16815260200190815260200160002060009054906101000a900460ff16905092915050565b7f318e0d99f5c898fe76545d6edd3bbf2ceea8ef1f22f2d106edb372a9e051598b81565b60007f7965db0b000000000000000000000000000000000000000000000000000000007bffffffffffffffffffffffffffffffffffffffffffffffffffffffff1916827bffffffffffffffffffffffffffffffffffffffffffffffffffffffff19161480611ab15750611ab082612229565b5b9050919050565b60008073ffffffffffffffffffffffffffffffffffffffff166002600084815260200190815260200160002060009054906101000a900473ffffffffffffffffffffffffffffffffffffffff1673ffffffffffffffffffffffffffffffffffffffff1614159050919050565b600033905090565b816004600083815260200190815260200160002060006101000a81548173ffffffffffffffffffffffffffffffffffffffff021916908373ffffffffffffffffffffffffffffffffffffffff160217905550808273ffffffffffffffffffffffffffffffffffffffff16611b9f83610d33565b73ffffffffffffffffffffffffffffffffffffffff167f8c5be1e5ebec7d5bd14f71427d1e84f3dd0314c0f7b2291e5b200ac8c7c3b92560405160405180910390a45050565b8173ffffffffffffffffffffffffffffffffffffffff168373ffffffffffffffffffffffffffffffffffffffff161415611c54576040517f08c379a0000000000000000000000000000000000000000000000000000000008152600401611c4b90614714565b60405180910390fd5b80600560008573ffffffffffffffffffffffffffffffffffffffff1673ffffffffffffffffffffffffffffffffffffffff16815260200190815260200160002060008473ffffffffffffffffffffffffffffffffffffffff1673ffffffffffffffffffffffffffffffffffffffff16815260200190815260200160002060006101000a81548160ff0219169083151502179055508173ffffffffffffffffffffffffffffffffffffffff168373ffffffffffffffffffffffffffffffffffffffff167f17307eab39ab6107e8899845ad3d59bd9653f200f220920489ca2b5937696c3183604051611d4591906132af565b60405180910390a3505050565b611d63611d5d611b24565b826122a3565b611da2576040517f08c379a0000000000000000000000000000000000000000000000000000000008152600401611d99906147a6565b60405180910390fd5b611dad838383612381565b505050565b611dbc8282610fb3565b611e4b57611de18173ffffffffffffffffffffffffffffffffffffffff1660146125dd565b611def8360001c60206125dd565b604051602001611e0092919061485e565b6040516020818303038152906040526040517f08c379a0000000000000000000000000000000000000000000000000000000008152600401611e429190613363565b60405180910390fd5b5050565b611e598282610fb3565b611f2c576001600b600084815260200190815260200160002060000160008373ffffffffffffffffffffffffffffffffffffffff1673ffffffffffffffffffffffffffffffffffffffff16815260200190815260200160002060006101000a81548160ff021916908315150217905550611ed1611b24565b73ffffffffffffffffffffffffffffffffffffffff168173ffffffffffffffffffffffffffffffffffffffff16837f2f8788117e7eff1d82e926ec794901d17c78024a50270940304540a733656f0d60405160405180910390a45b5050565b611f3a8282610fb3565b1561200e576000600b600084815260200190815260200160002060000160008373ffffffffffffffffffffffffffffffffffffffff1673ffffffffffffffffffffffffffffffffffffffff16815260200190815260200160002060006101000a81548160ff021916908315150217905550611fb3611b24565b73ffffffffffffffffffffffffffffffffffffffff168173ffffffffffffffffffffffffffffffffffffffff16837ff6391f5c32d9c69d2a47ea670b442974b53935d1edc7fd64eb21e047a839171b60405160405180910390a45b5050565b61201d848484612381565b61202984848484612819565b612068576040517f08c379a000000000000000000000000000000000000000000000000000000000815260040161205f9061490a565b60405180910390fd5b50505050565b6060600082511415612091576040518060200160405280600081525090506121e2565b6000604051806060016040528060408152602001614ed460409139905060006003600285516120c09190614959565b6120ca91906149de565b60046120d69190614a0f565b905060006020826120e79190614959565b67ffffffffffffffff811115612100576120ff61369d565b5b6040519080825280601f01601f1916602001820160405280156121325781602001600182028036833780820191505090505b509050818152600183018586518101602084015b818310156121a1576003830192508251603f8160121c168501518253600182019150603f81600c1c168501518253600182019150603f8160061c168501518253600182019150603f8116850151825360018201915050612146565b6003895106600181146121bb57600281146121cb576121d6565b613d3d60f01b60028303526121d6565b603d60f81b60018303525b50505050508093505050505b919050565b600081600001549050919050565b6001816000016000828254019250508190555050565b6122258282604051806020016040528060008152506129a1565b5050565b60007f780e9d63000000000000000000000000000000000000000000000000000000007bffffffffffffffffffffffffffffffffffffffffffffffffffffffff1916827bffffffffffffffffffffffffffffffffffffffffffffffffffffffff1916148061229c575061229b826129fc565b5b9050919050565b60006122ae82611ab8565b6122ed576040517f08c379a00000000000000000000000000000000000000000000000000000000081526004016122e490614adb565b60405180910390fd5b60006122f883610d33565b90508073ffffffffffffffffffffffffffffffffffffffff168473ffffffffffffffffffffffffffffffffffffffff16148061236757508373ffffffffffffffffffffffffffffffffffffffff1661234f84610769565b73ffffffffffffffffffffffffffffffffffffffff16145b8061237857506123778185611986565b5b91505092915050565b8273ffffffffffffffffffffffffffffffffffffffff166123a182610d33565b73ffffffffffffffffffffffffffffffffffffffff16146123f7576040517f08c379a00000000000000000000000000000000000000000000000000000000081526004016123ee90614b6d565b60405180910390fd5b600073ffffffffffffffffffffffffffffffffffffffff168273ffffffffffffffffffffffffffffffffffffffff161415612467576040517f08c379a000000000000000000000000000000000000000000000000000000000815260040161245e90614bff565b60405180910390fd5b612472838383612ade565b61247d600082611b2c565b6001600360008573ffffffffffffffffffffffffffffffffffffffff1673ffffffffffffffffffffffffffffffffffffffff16815260200190815260200160002060008282546124cd9190614c1f565b925050819055506001600360008473ffffffffffffffffffffffffffffffffffffffff1673ffffffffffffffffffffffffffffffffffffffff16815260200190815260200160002060008282546125249190614959565b92505081905550816002600083815260200190815260200160002060006101000a81548173ffffffffffffffffffffffffffffffffffffffff021916908373ffffffffffffffffffffffffffffffffffffffff160217905550808273ffffffffffffffffffffffffffffffffffffffff168473ffffffffffffffffffffffffffffffffffffffff167fddf252ad1be2c89b69c2b068fc378daa952ba7f163c4a11628f55a4df523b3ef60405160405180910390a4505050565b6060600060028360026125f09190614a0f565b6125fa9190614959565b67ffffffffffffffff8111156126135761261261369d565b5b6040519080825280601f01601f1916602001820160405280156126455781602001600182028036833780820191505090505b5090507f30000000000000000000000000000000000000000000000000000000000000008160008151811061267d5761267c613f9a565b5b60200101907effffffffffffffffffffffffffffffffffffffffffffffffffffffffffffff1916908160001a9053507f7800000000000000000000000000000000000000000000000000000000000000816001815181106126e1576126e0613f9a565b5b60200101907effffffffffffffffffffffffffffffffffffffffffffffffffffffffffffff1916908160001a905350600060018460026127219190614a0f565b61272b9190614959565b90505b60018111156127cb577f3031323334353637383961626364656600000000000000000000000000000000600f86166010811061276d5761276c613f9a565b5b1a60f81b82828151811061278457612783613f9a565b5b60200101907effffffffffffffffffffffffffffffffffffffffffffffffffffffffffffff1916908160001a905350600485901c9450806127c490614c53565b905061272e565b506000841461280f576040517f08c379a000000000000000000000000000000000000000000000000000000000815260040161280690614cc9565b60405180910390fd5b8091505092915050565b600061283a8473ffffffffffffffffffffffffffffffffffffffff16612aee565b15612994578373ffffffffffffffffffffffffffffffffffffffff1663150b7a02612863611b24565b8786866040518563ffffffff1660e01b81526004016128859493929190614d3e565b6020604051808303816000875af19250505080156128c157506040513d601f19601f820116820180604052508101906128be9190614d9f565b60015b612944573d80600081146128f1576040519150601f19603f3d011682016040523d82523d6000602084013e6128f6565b606091505b5060008151141561293c576040517f08c379a00000000000000000000000000000000000000000000000000000000081526004016129339061490a565b60405180910390fd5b805181602001fd5b63150b7a0260e01b7bffffffffffffffffffffffffffffffffffffffffffffffffffffffff1916817bffffffffffffffffffffffffffffffffffffffffffffffffffffffff191614915050612999565b600190505b949350505050565b6129ab8383612b01565b6129b86000848484612819565b6129f7576040517f08c379a00000000000000000000000000000000000000000000000000000000081526004016129ee9061490a565b60405180910390fd5b505050565b60007f80ac58cd000000000000000000000000000000000000000000000000000000007bffffffffffffffffffffffffffffffffffffffffffffffffffffffff1916827bffffffffffffffffffffffffffffffffffffffffffffffffffffffff19161480612ac757507f5b5e139f000000000000000000000000000000000000000000000000000000007bffffffffffffffffffffffffffffffffffffffffffffffffffffffff1916827bffffffffffffffffffffffffffffffffffffffffffffffffffffffff1916145b80612ad75750612ad682612ccf565b5b9050919050565b612ae9838383612d39565b505050565b600080823b905060008111915050919050565b600073ffffffffffffffffffffffffffffffffffffffff168273ffffffffffffffffffffffffffffffffffffffff161415612b71576040517f08c379a0000000000000000000000000000000000000000000000000000000008152600401612b6890614e18565b60405180910390fd5b612b7a81611ab8565b15612bba576040517f08c379a0000000000000000000000000000000000000000000000000000000008152600401612bb190614e84565b60405180910390fd5b612bc660008383612ade565b6001600360008473ffffffffffffffffffffffffffffffffffffffff1673ffffffffffffffffffffffffffffffffffffffff1681526020019081526020016000206000828254612c169190614959565b92505081905550816002600083815260200190815260200160002060006101000a81548173ffffffffffffffffffffffffffffffffffffffff021916908373ffffffffffffffffffffffffffffffffffffffff160217905550808273ffffffffffffffffffffffffffffffffffffffff16600073ffffffffffffffffffffffffffffffffffffffff167fddf252ad1be2c89b69c2b068fc378daa952ba7f163c4a11628f55a4df523b3ef60405160405180910390a45050565b60007f01ffc9a7000000000000000000000000000000000000000000000000000000007bffffffffffffffffffffffffffffffffffffffffffffffffffffffff1916827bffffffffffffffffffffffffffffffffffffffffffffffffffffffff1916149050919050565b612d44838383612e4d565b600073ffffffffffffffffffffffffffffffffffffffff168373ffffffffffffffffffffffffffffffffffffffff161415612d8757612d8281612e52565b612dc6565b8173ffffffffffffffffffffffffffffffffffffffff168373ffffffffffffffffffffffffffffffffffffffff1614612dc557612dc48382612e9b565b5b5b600073ffffffffffffffffffffffffffffffffffffffff168273ffffffffffffffffffffffffffffffffffffffff161415612e0957612e0481613008565b612e48565b8273ffffffffffffffffffffffffffffffffffffffff168273ffffffffffffffffffffffffffffffffffffffff1614612e4757612e4682826130d9565b5b5b505050565b505050565b6008805490506009600083815260200190815260200160002081905550600881908060018154018082558091505060019003906000526020600020016000909190919091505550565b60006001612ea884610ec8565b612eb29190614c1f565b9050600060076000848152602001908152602001600020549050818114612f97576000600660008673ffffffffffffffffffffffffffffffffffffffff1673ffffffffffffffffffffffffffffffffffffffff168152602001908152602001600020600084815260200190815260200160002054905080600660008773ffffffffffffffffffffffffffffffffffffffff1673ffffffffffffffffffffffffffffffffffffffff168152602001908152602001600020600084815260200190815260200160002081905550816007600083815260200190815260200160002081905550505b6007600084815260200190815260200160002060009055600660008573ffffffffffffffffffffffffffffffffffffffff1673ffffffffffffffffffffffffffffffffffffffff16815260200190815260200160002060008381526020019081526020016000206000905550505050565b6000600160088054905061301c9190614c1f565b905060006009600084815260200190815260200160002054905060006008838154811061304c5761304b613f9a565b5b90600052602060002001549050806008838154811061306e5761306d613f9a565b5b9060005260206000200181905550816009600083815260200190815260200160002081905550600960008581526020019081526020016000206000905560088054806130bd576130bc614ea4565b5b6001900381819060005260206000200160009055905550505050565b60006130e483610ec8565b905081600660008573ffffffffffffffffffffffffffffffffffffffff1673ffffffffffffffffffffffffffffffffffffffff168152602001908152602001600020600083815260200190815260200160002081905550806007600084815260200190815260200160002081905550505050565b82805461316490613ad8565b90600052602060002090601f01602090048101928261318657600085556131cd565b82601f1061319f57805160ff19168380011785556131cd565b828001600101855582156131cd579182015b828111156131cc5782518255916020019190600101906131b1565b5b5090506131da91906131de565b5090565b5b808211156131f75760008160009055506001016131df565b5090565b6000604051905090565b600080fd5b600080fd5b60007fffffffff0000000000000000000000000000000000000000000000000000000082169050919050565b6132448161320f565b811461324f57600080fd5b50565b6000813590506132618161323b565b92915050565b60006020828403121561327d5761327c613205565b5b600061328b84828501613252565b91505092915050565b60008115159050919050565b6132a981613294565b82525050565b60006020820190506132c460008301846132a0565b92915050565b600081519050919050565b600082825260208201905092915050565b60005b838110156133045780820151818401526020810190506132e9565b83811115613313576000848401525b50505050565b6000601f19601f8301169050919050565b6000613335826132ca565b61333f81856132d5565b935061334f8185602086016132e6565b61335881613319565b840191505092915050565b6000602082019050818103600083015261337d818461332a565b905092915050565b6000819050919050565b61339881613385565b81146133a357600080fd5b50565b6000813590506133b58161338f565b92915050565b6000602082840312156133d1576133d0613205565b5b60006133df848285016133a6565b91505092915050565b600073ffffffffffffffffffffffffffffffffffffffff82169050919050565b6000613413826133e8565b9050919050565b61342381613408565b82525050565b600060208201905061343e600083018461341a565b92915050565b61344d81613408565b811461345857600080fd5b50565b60008135905061346a81613444565b92915050565b6000806040838503121561348757613486613205565b5b60006134958582860161345b565b92505060206134a6858286016133a6565b9150509250929050565b6134b981613385565b82525050565b60006020820190506134d460008301846134b0565b92915050565b6000806000606084860312156134f3576134f2613205565b5b60006135018682870161345b565b93505060206135128682870161345b565b9250506040613523868287016133a6565b9150509250925092565b6000819050919050565b6135408161352d565b811461354b57600080fd5b50565b60008135905061355d81613537565b92915050565b60006020828403121561357957613578613205565b5b60006135878482850161354e565b91505092915050565b6135998161352d565b82525050565b60006020820190506135b46000830184613590565b92915050565b600080604083850312156135d1576135d0613205565b5b60006135df8582860161354e565b92505060206135f08582860161345b565b9150509250929050565b6000602082840312156136105761360f613205565b5b600061361e8482850161345b565b91505092915050565b61363081613294565b811461363b57600080fd5b50565b60008135905061364d81613627565b92915050565b6000806040838503121561366a57613669613205565b5b60006136788582860161345b565b92505060206136898582860161363e565b9150509250929050565b600080fd5b600080fd5b7f4e487b7100000000000000000000000000000000000000000000000000000000600052604160045260246000fd5b6136d582613319565b810181811067ffffffffffffffff821117156136f4576136f361369d565b5b80604052505050565b60006137076131fb565b905061371382826136cc565b919050565b600067ffffffffffffffff8211156137335761373261369d565b5b61373c82613319565b9050602081019050919050565b82818337600083830152505050565b600061376b61376684613718565b6136fd565b90508281526020810184848401111561378757613786613698565b5b613792848285613749565b509392505050565b600082601f8301126137af576137ae613693565b5b81356137bf848260208601613758565b91505092915050565b600080600080608085870312156137e2576137e1613205565b5b60006137f08782880161345b565b94505060206138018782880161345b565b9350506040613812878288016133a6565b925050606085013567ffffffffffffffff8111156138335761383261320a565b5b61383f8782880161379a565b91505092959194509250565b600060a0820190508181036000830152613865818861332a565b90508181036020830152613879818761332a565b9050818103604083015261388d818661332a565b905081810360608301526138a1818561332a565b905081810360808301526138b5818461332a565b90509695505050505050565b600067ffffffffffffffff8211156138dc576138db61369d565b5b6138e582613319565b9050602081019050919050565b6000613905613900846138c1565b6136fd565b90508281526020810184848401111561392157613920613698565b5b61392c848285613749565b509392505050565b600082601f83011261394957613948613693565b5b81356139598482602086016138f2565b91505092915050565b600080600080600060a0868803121561397e5761397d613205565b5b600086013567ffffffffffffffff81111561399c5761399b61320a565b5b6139a888828901613934565b955050602086013567ffffffffffffffff8111156139c9576139c861320a565b5b6139d588828901613934565b945050604086013567ffffffffffffffff8111156139f6576139f561320a565b5b613a0288828901613934565b935050606086013567ffffffffffffffff811115613a2357613a2261320a565b5b613a2f88828901613934565b925050608086013567ffffffffffffffff811115613a5057613a4f61320a565b5b613a5c88828901613934565b9150509295509295909350565b60008060408385031215613a8057613a7f613205565b5b6000613a8e8582860161345b565b9250506020613a9f8582860161345b565b9150509250929050565b7f4e487b7100000000000000000000000000000000000000000000000000000000600052602260045260246000fd5b60006002820490506001821680613af057607f821691505b60208210811415613b0457613b03613aa9565b5b50919050565b7f4552433732313a20617070726f76656420717565727920666f72206e6f6e657860008201527f697374656e7420746f6b656e0000000000000000000000000000000000000000602082015250565b6000613b66602c836132d5565b9150613b7182613b0a565b604082019050919050565b60006020820190508181036000830152613b9581613b59565b9050919050565b7f4552433732313a20617070726f76616c20746f2063757272656e74206f776e6560008201527f7200000000000000000000000000000000000000000000000000000000000000602082015250565b6000613bf86021836132d5565b9150613c0382613b9c565b604082019050919050565b60006020820190508181036000830152613c2781613beb565b9050919050565b7f4552433732313a20617070726f76652063616c6c6572206973206e6f74206f7760008201527f6e6572206e6f7220617070726f76656420666f7220616c6c0000000000000000602082015250565b6000613c8a6038836132d5565b9150613c9582613c2e565b604082019050919050565b60006020820190508181036000830152613cb981613c7d565b9050919050565b7f5469656e6520717565206578697374697220756e206d61726b6574706c61636560008201527f4164647265737300000000000000000000000000000000000000000000000000602082015250565b6000613d1c6027836132d5565b9150613d2782613cc0565b604082019050919050565b60006020820190508181036000830152613d4b81613d0f565b9050919050565b7f536f6c6f207075656465206861626572207472616e73666572656e636961732060008201527f64656e74726f2064656c206d61726b6574706c61636541646472657373000000602082015250565b6000613dae603d836132d5565b9150613db982613d52565b604082019050919050565b60006020820190508181036000830152613ddd81613da1565b9050919050565b7f455243373231456e756d657261626c653a206f776e657220696e646578206f7560008201527f74206f6620626f756e6473000000000000000000000000000000000000000000602082015250565b6000613e40602b836132d5565b9150613e4b82613de4565b604082019050919050565b60006020820190508181036000830152613e6f81613e33565b9050919050565b7f416363657373436f6e74726f6c3a2063616e206f6e6c792072656e6f756e636560008201527f20726f6c657320666f722073656c660000000000000000000000000000000000602082015250565b6000613ed2602f836132d5565b9150613edd82613e76565b604082019050919050565b60006020820190508181036000830152613f0181613ec5565b9050919050565b7f455243373231456e756d657261626c653a20676c6f62616c20696e646578206f60008201527f7574206f6620626f756e64730000000000000000000000000000000000000000602082015250565b6000613f64602c836132d5565b9150613f6f82613f08565b604082019050919050565b60006020820190508181036000830152613f9381613f57565b9050919050565b7f4e487b7100000000000000000000000000000000000000000000000000000000600052603260045260246000fd5b7f4552433732313a206f776e657220717565727920666f72206e6f6e657869737460008201527f656e7420746f6b656e0000000000000000000000000000000000000000000000602082015250565b60006140256029836132d5565b915061403082613fc9565b604082019050919050565b6000602082019050818103600083015261405481614018565b9050919050565b7f4e6f20736520707565646520656c696d696e617220616c20737570657261646d60008201527f696e000000000000000000000000000000000000000000000000000000000000602082015250565b60006140b76022836132d5565b91506140c28261405b565b604082019050919050565b600060208201905081810360008301526140e6816140aa565b9050919050565b7f4552433732313a2062616c616e636520717565727920666f7220746865207a6560008201527f726f206164647265737300000000000000000000000000000000000000000000602082015250565b6000614149602a836132d5565b9150614154826140ed565b604082019050919050565b600060208201905081810360008301526141788161413c565b9050919050565b600081905092915050565b7f7b226e616d65223a202200000000000000000000000000000000000000000000600082015250565b60006141c0600a8361417f565b91506141cb8261418a565b600a82019050919050565b60008190508160005260206000209050919050565b600081546141f881613ad8565b614202818661417f565b9450600182166000811461421d576001811461422e57614261565b60ff19831686528186019350614261565b614237856141d6565b60005b838110156142595781548189015260018201915060208101905061423a565b838801955050505b50505092915050565b7f222c000000000000000000000000000000000000000000000000000000000000600082015250565b60006142a060028361417f565b91506142ab8261426a565b600282019050919050565b7f22696d6167655f64617461223a20220000000000000000000000000000000000600082015250565b60006142ec600f8361417f565b91506142f7826142b6565b600f82019050919050565b7f2261747472696275746573223a205b7b2274726169745f74797065223a20227360008201527f796e6f70736973222c202276616c7565223a2022000000000000000000000000602082015250565b600061435e60348361417f565b915061436982614302565b603482019050919050565b7f227d2c0000000000000000000000000000000000000000000000000000000000600082015250565b60006143aa60038361417f565b91506143b582614374565b600382019050919050565b7f7b2274726169745f74797065223a20224953424e222c202276616c7565223a2060008201527f2200000000000000000000000000000000000000000000000000000000000000602082015250565b600061441c60218361417f565b9150614427826143c0565b602182019050919050565b7f7b2274726169745f74797065223a2022617574686f72222c202276616c75652260008201527f3a20220000000000000000000000000000000000000000000000000000000000602082015250565b600061448e60238361417f565b915061449982614432565b602382019050919050565b7f227d000000000000000000000000000000000000000000000000000000000000600082015250565b60006144da60028361417f565b91506144e5826144a4565b600282019050919050565b7f5d7d000000000000000000000000000000000000000000000000000000000000600082015250565b600061452660028361417f565b9150614531826144f0565b600282019050919050565b6000614547826141b3565b915061455382886141eb565b915061455e82614293565b9150614569826142df565b915061457582876141eb565b915061458082614293565b915061458b82614351565b915061459782866141eb565b91506145a28261439d565b91506145ad8261440f565b91506145b982856141eb565b91506145c48261439d565b91506145cf82614481565b91506145db82846141eb565b91506145e6826144cd565b91506145f182614519565b91508190509695505050505050565b7f646174613a6170706c69636174696f6e2f6a736f6e3b6261736536342c000000600082015250565b6000614636601d8361417f565b915061464182614600565b601d82019050919050565b6000614657826132ca565b614661818561417f565b93506146718185602086016132e6565b80840191505092915050565b600061468882614629565b9150614694828461464c565b915081905092915050565b60006040820190506146b460008301856134b0565b6146c1602083018461341a565b9392505050565b7f4552433732313a20617070726f766520746f2063616c6c657200000000000000600082015250565b60006146fe6019836132d5565b9150614709826146c8565b602082019050919050565b6000602082019050818103600083015261472d816146f1565b9050919050565b7f4552433732313a207472616e736665722063616c6c6572206973206e6f74206f60008201527f776e6572206e6f7220617070726f766564000000000000000000000000000000602082015250565b60006147906031836132d5565b915061479b82614734565b604082019050919050565b600060208201905081810360008301526147bf81614783565b9050919050565b7f416363657373436f6e74726f6c3a206163636f756e7420000000000000000000600082015250565b60006147fc60178361417f565b9150614807826147c6565b601782019050919050565b7f206973206d697373696e6720726f6c6520000000000000000000000000000000600082015250565b600061484860118361417f565b915061485382614812565b601182019050919050565b6000614869826147ef565b9150614875828561464c565b91506148808261483b565b915061488c828461464c565b91508190509392505050565b7f4552433732313a207472616e7366657220746f206e6f6e20455243373231526560008201527f63656976657220696d706c656d656e7465720000000000000000000000000000602082015250565b60006148f46032836132d5565b91506148ff82614898565b604082019050919050565b60006020820190508181036000830152614923816148e7565b9050919050565b7f4e487b7100000000000000000000000000000000000000000000000000000000600052601160045260246000fd5b600061496482613385565b915061496f83613385565b9250827fffffffffffffffffffffffffffffffffffffffffffffffffffffffffffffffff038211156149a4576149a361492a565b5b828201905092915050565b7f4e487b7100000000000000000000000000000000000000000000000000000000600052601260045260246000fd5b60006149e982613385565b91506149f483613385565b925082614a0457614a036149af565b5b828204905092915050565b6000614a1a82613385565b9150614a2583613385565b9250817fffffffffffffffffffffffffffffffffffffffffffffffffffffffffffffffff0483118215151615614a5e57614a5d61492a565b5b828202905092915050565b7f4552433732313a206f70657261746f7220717565727920666f72206e6f6e657860008201527f697374656e7420746f6b656e0000000000000000000000000000000000000000602082015250565b6000614ac5602c836132d5565b9150614ad082614a69565b604082019050919050565b60006020820190508181036000830152614af481614ab8565b9050919050565b7f4552433732313a207472616e73666572206f6620746f6b656e2074686174206960008201527f73206e6f74206f776e0000000000000000000000000000000000000000000000602082015250565b6000614b576029836132d5565b9150614b6282614afb565b604082019050919050565b60006020820190508181036000830152614b8681614b4a565b9050919050565b7f4552433732313a207472616e7366657220746f20746865207a65726f2061646460008201527f7265737300000000000000000000000000000000000000000000000000000000602082015250565b6000614be96024836132d5565b9150614bf482614b8d565b604082019050919050565b60006020820190508181036000830152614c1881614bdc565b9050919050565b6000614c2a82613385565b9150614c3583613385565b925082821015614c4857614c4761492a565b5b828203905092915050565b6000614c5e82613385565b91506000821415614c7257614c7161492a565b5b600182039050919050565b7f537472696e67733a20686578206c656e67746820696e73756666696369656e74600082015250565b6000614cb36020836132d5565b9150614cbe82614c7d565b602082019050919050565b60006020820190508181036000830152614ce281614ca6565b9050919050565b600081519050919050565b600082825260208201905092915050565b6000614d1082614ce9565b614d1a8185614cf4565b9350614d2a8185602086016132e6565b614d3381613319565b840191505092915050565b6000608082019050614d53600083018761341a565b614d60602083018661341a565b614d6d60408301856134b0565b8181036060830152614d7f8184614d05565b905095945050505050565b600081519050614d998161323b565b92915050565b600060208284031215614db557614db4613205565b5b6000614dc384828501614d8a565b91505092915050565b7f4552433732313a206d696e7420746f20746865207a65726f2061646472657373600082015250565b6000614e026020836132d5565b9150614e0d82614dcc565b602082019050919050565b60006020820190508181036000830152614e3181614df5565b9050919050565b7f4552433732313a20746f6b656e20616c7265616479206d696e74656400000000600082015250565b6000614e6e601c836132d5565b9150614e7982614e38565b602082019050919050565b60006020820190508181036000830152614e9d81614e61565b9050919050565b7f4e487b7100000000000000000000000000000000000000000000000000000000600052603160045260246000fdfe4142434445464748494a4b4c4d4e4f505152535455565758595a6162636465666768696a6b6c6d6e6f707172737475767778797a303132333435363738392b2fa26469706673582212207a5f7471643ca98726ff3bc65bb57d79ed115b025ede1ab04a6e58d4ebb6161264736f6c634300080a0033",
  "immutableReferences": {},
  "source": "// SPDX-License-Identifier: MIT\n\npragma solidity ^0.8.10;\n\nimport \"@openzeppelin/contracts/access/AccessControl.sol\";\nimport \"@openzeppelin/contracts/token/ERC721/ERC721.sol\";\nimport \"@openzeppelin/contracts/token/ERC721/extensions/ERC721URIStorage.sol\";\nimport \"@openzeppelin/contracts/token/ERC721/extensions/ERC721Enumerable.sol\";\n// import \"@openzeppelin/contracts/token/ERC721/extensions/ERC721Burnable.sol\";\nimport \"@openzeppelin/contracts/utils/Strings.sol\";\nimport \"@openzeppelin/contracts/utils/Counters.sol\";\nimport \"./library/base64.sol\";\nimport \"./Marketplace.sol\";\n\ncontract LibroNFT is ERC721, ERC721Enumerable, ERC721URIStorage, AccessControl {\n    using Counters for Counters.Counter;\n\n    struct Attr {\n        string title;\n        string author;\n        string photoURL;\n        string synopsis;\n        string ISBN;\n    }\n\n    mapping(uint256 => Attr) public attributes;\n\n    Counters.Counter private _tokenIdCounter;\n\n    bytes32 public constant LIBRARIAN = keccak256(\"LIBRARIAN\");\n\n    address public marketplaceAddress;\n\n    //address owner,string memory name, string memory symbol) ERC721(name, symbol)\n    constructor(address owner) ERC721(\"LibroNFT\", \"LIBRO\") {\n        _grantRole(DEFAULT_ADMIN_ROLE, owner);\n\n        _grantRole(LIBRARIAN, owner);\n        _setRoleAdmin(LIBRARIAN, DEFAULT_ADMIN_ROLE);\n    }\n\n    function addMarketPlaceAddress(address _marketplaceAddress)\n        public\n        onlyRole(DEFAULT_ADMIN_ROLE)\n    {\n        marketplaceAddress = _marketplaceAddress;\n        setApprovalForAll(marketplaceAddress, true);\n    }\n\n    function addAdmin(address newAdmin)\n        public\n        virtual\n        onlyRole(DEFAULT_ADMIN_ROLE)\n        returns (bool)\n    {\n        _grantRole(DEFAULT_ADMIN_ROLE, newAdmin);\n        return true;\n    }\n\n    function addLibrarian(address newLibrarian)\n        public\n        virtual\n        onlyRole(LIBRARIAN)\n        returns (bool)\n    {\n        _grantRole(LIBRARIAN, newLibrarian);\n        return true;\n    }\n\n    function isLibrarian(address _address) public view returns (bool) {\n        return hasRole(LIBRARIAN, _address);\n    }\n\n    function revokeLibrarian(address oldLibrarian)\n        public\n        virtual\n        onlyRole(LIBRARIAN)\n        returns (bool)\n    {\n        require(\n            !hasRole(DEFAULT_ADMIN_ROLE, oldLibrarian),\n            \"No se puede eliminar al superadmin\"\n        );\n        _revokeRole(LIBRARIAN, oldLibrarian);\n        return true;\n    }\n\n    function safeMint(\n        string memory title,\n        string memory author,\n        string memory photoURL,\n        string memory synopsis,\n        string memory ISBN\n    ) public onlyRole(LIBRARIAN) {\n        require(\n            marketplaceAddress != address(0),\n            \"Tiene que existir un marketplaceAddress\"\n        );\n        uint256 tokenId = _tokenIdCounter.current();\n        _tokenIdCounter.increment();\n        _safeMint(marketplaceAddress, tokenId);\n\n        Marketplace market = Marketplace(marketplaceAddress);\n        market.addBook(tokenId, msg.sender);\n\n        attributes[tokenId] = Attr(title, author, photoURL, synopsis, ISBN);\n        // _setTokenURI(tokenId, uri);\n    }\n\n    // The following functions are overrides required by Solidity.\n\n    //La keyword \"super\" hace referencia al objeto padre que se encuentre de derecha a izquierda, en este caso ERC721URIStorage\n    function _burn(uint256 tokenId)\n        internal\n        override(ERC721, ERC721URIStorage)\n        onlyRole(LIBRARIAN)\n    {\n        super._burn(tokenId);\n    }\n\n    function tokenURI(uint256 tokenId)\n        public\n        view\n        override(ERC721, ERC721URIStorage)\n        returns (string memory)\n    {\n        string memory json = Base64.encode(\n            bytes(\n                string(\n                    abi.encodePacked(\n                        '{\"name\": \"',\n                        attributes[tokenId].title,\n                        '\",',\n                        '\"image_data\": \"',\n                        attributes[tokenId].photoURL,\n                        '\",',\n                        '\"attributes\": [{\"trait_type\": \"synopsis\", \"value\": \"',\n                        attributes[tokenId].synopsis,\n                        '\"},',\n                        '{\"trait_type\": \"ISBN\", \"value\": \"',\n                        attributes[tokenId].ISBN,\n                        '\"},',\n                        '{\"trait_type\": \"author\", \"value\": \"',\n                        attributes[tokenId].author,\n                        '\"}',\n                        \"]}\"\n                    )\n                )\n            )\n        );\n        return string(abi.encodePacked(\"data:application/json;base64,\", json));\n    }\n\n    function _beforeTokenTransfer(\n        address from,\n        address to,\n        uint256 tokenId\n    ) internal override(ERC721, ERC721Enumerable) {\n        super._beforeTokenTransfer(from, to, tokenId);\n    }\n\n    function supportsInterface(bytes4 interfaceId)\n        public\n        view\n        override(ERC721, ERC721Enumerable, AccessControl)\n        returns (bool)\n    {\n        return super.supportsInterface(interfaceId);\n    }\n\n    function safeTransferFrom(\n        address from,\n        address to,\n        uint256 tokenId,\n        bytes memory _data\n    ) public virtual override(ERC721) {\n        require(\n            marketplaceAddress != address(0),\n            \"Tiene que existir un marketplaceAddress\"\n        );\n        require(\n            msg.sender == marketplaceAddress,\n            \"Solo puede haber transferencias dentro del marketplaceAddress\"\n        );\n        if (from != marketplaceAddress) {\n            super._setApprovalForAll(from, marketplaceAddress, true);\n        }\n\n        super._safeTransfer(from, to, tokenId, _data);\n    }\n\n    function transferFrom(\n        address from,\n        address to,\n        uint256 tokenId\n    ) public virtual override(ERC721) {\n        require(\n            marketplaceAddress != address(0),\n            \"Tiene que existir un marketplaceAddress\"\n        );\n        require(\n            msg.sender == marketplaceAddress,\n            \"Solo puede haber transferencias dentro del marketplaceAddress\"\n        );\n        if (from != marketplaceAddress) {\n            super._setApprovalForAll(from, marketplaceAddress, true);\n        }\n        super.transferFrom(from, to, tokenId);\n    }\n\n    function existTokenID(uint256 _tokenID) public view returns (bool) {\n        return super._exists(_tokenID);\n    }\n}\n",
  "sourcePath": "C:\\Users\\Axel\\Desktop\\biblioDApp\\smartContracts\\contracts\\LibroNFT.sol",
  "compiler": {
    "name": "solc",
    "version": "0.8.10+commit.fc410830.Emscripten.clang"
  },
  "schemaVersion": "3.4.3",
  "updatedAt": "2022-02-04T16:11:00.125Z",
  "networkType": "ethereum",
  "devdoc": {
    "kind": "dev",
    "methods": {
      "approve(address,uint256)": {
        "details": "See {IERC721-approve}."
      },
      "balanceOf(address)": {
        "details": "See {IERC721-balanceOf}."
      },
      "getApproved(uint256)": {
        "details": "See {IERC721-getApproved}."
      },
      "getRoleAdmin(bytes32)": {
        "details": "Returns the admin role that controls `role`. See {grantRole} and {revokeRole}. To change a role's admin, use {_setRoleAdmin}."
      },
      "grantRole(bytes32,address)": {
        "details": "Grants `role` to `account`. If `account` had not been already granted `role`, emits a {RoleGranted} event. Requirements: - the caller must have ``role``'s admin role."
      },
      "hasRole(bytes32,address)": {
        "details": "Returns `true` if `account` has been granted `role`."
      },
      "isApprovedForAll(address,address)": {
        "details": "See {IERC721-isApprovedForAll}."
      },
      "name()": {
        "details": "See {IERC721Metadata-name}."
      },
      "ownerOf(uint256)": {
        "details": "See {IERC721-ownerOf}."
      },
      "renounceRole(bytes32,address)": {
        "details": "Revokes `role` from the calling account. Roles are often managed via {grantRole} and {revokeRole}: this function's purpose is to provide a mechanism for accounts to lose their privileges if they are compromised (such as when a trusted device is misplaced). If the calling account had been revoked `role`, emits a {RoleRevoked} event. Requirements: - the caller must be `account`."
      },
      "revokeRole(bytes32,address)": {
        "details": "Revokes `role` from `account`. If `account` had been granted `role`, emits a {RoleRevoked} event. Requirements: - the caller must have ``role``'s admin role."
      },
      "safeTransferFrom(address,address,uint256)": {
        "details": "See {IERC721-safeTransferFrom}."
      },
      "safeTransferFrom(address,address,uint256,bytes)": {
        "details": "See {IERC721-safeTransferFrom}."
      },
      "setApprovalForAll(address,bool)": {
        "details": "See {IERC721-setApprovalForAll}."
      },
      "symbol()": {
        "details": "See {IERC721Metadata-symbol}."
      },
      "tokenByIndex(uint256)": {
        "details": "See {IERC721Enumerable-tokenByIndex}."
      },
      "tokenOfOwnerByIndex(address,uint256)": {
        "details": "See {IERC721Enumerable-tokenOfOwnerByIndex}."
      },
      "totalSupply()": {
        "details": "See {IERC721Enumerable-totalSupply}."
      },
      "transferFrom(address,address,uint256)": {
        "details": "See {IERC721-transferFrom}."
      }
    },
    "version": 1
  },
  "userdoc": {
    "kind": "user",
    "methods": {},
    "version": 1
  }
}