{
  "contractName": "Marketplace",
  "abi": [
    {
      "inputs": [
        {
          "internalType": "address",
          "name": "tokenAddress",
          "type": "address"
        }
      ],
      "stateMutability": "nonpayable",
      "type": "constructor"
    },
    {
      "anonymous": false,
      "inputs": [],
      "name": "Received",
      "type": "event"
    },
    {
      "inputs": [
        {
          "internalType": "uint256",
          "name": "",
          "type": "uint256"
        }
      ],
      "name": "booksAvailable",
      "outputs": [
        {
          "internalType": "bool",
          "name": "isActive",
          "type": "bool"
        },
        {
          "internalType": "uint256",
          "name": "tokenID",
          "type": "uint256"
        }
      ],
      "stateMutability": "view",
      "type": "function",
      "constant": true
    },
    {
      "inputs": [],
      "name": "totalBooks",
      "outputs": [
        {
          "internalType": "uint256",
          "name": "",
          "type": "uint256"
        }
      ],
      "stateMutability": "view",
      "type": "function",
      "constant": true
    },
    {
      "inputs": [
        {
          "internalType": "uint256",
          "name": "tokenID",
          "type": "uint256"
        }
      ],
      "name": "addBook",
      "outputs": [],
      "stateMutability": "nonpayable",
      "type": "function"
    },
    {
      "inputs": [
        {
          "internalType": "uint256",
          "name": "index",
          "type": "uint256"
        }
      ],
      "name": "rentBook",
      "outputs": [],
      "stateMutability": "nonpayable",
      "type": "function"
    },
    {
      "inputs": [
        {
          "internalType": "uint256",
          "name": "index",
          "type": "uint256"
        }
      ],
      "name": "getActiveBooksByIndex",
      "outputs": [
        {
          "internalType": "uint256",
          "name": "",
          "type": "uint256"
        }
      ],
      "stateMutability": "view",
      "type": "function",
      "constant": true
    },
    {
      "inputs": [],
      "name": "getActiveBooksCount",
      "outputs": [
        {
          "internalType": "uint256",
          "name": "",
          "type": "uint256"
        }
      ],
      "stateMutability": "view",
      "type": "function",
      "constant": true
    },
    {
      "inputs": [
        {
          "internalType": "address",
          "name": "_operator",
          "type": "address"
        },
        {
          "internalType": "address",
          "name": "_from",
          "type": "address"
        },
        {
          "internalType": "uint256",
          "name": "_tokenId",
          "type": "uint256"
        },
        {
          "internalType": "bytes",
          "name": "_data",
          "type": "bytes"
        }
      ],
      "name": "onERC721Received",
      "outputs": [
        {
          "internalType": "bytes4",
          "name": "",
          "type": "bytes4"
        }
      ],
      "stateMutability": "nonpayable",
      "type": "function"
    }
  ],
  "bytecode": "0x608060405234801561001057600080fd5b50604051610b44380380610b44833981810160405281019061003291906100dc565b80600260006101000a81548173ffffffffffffffffffffffffffffffffffffffff021916908373ffffffffffffffffffffffffffffffffffffffff16021790555050610109565b600080fd5b600073ffffffffffffffffffffffffffffffffffffffff82169050919050565b60006100a98261007e565b9050919050565b6100b98161009e565b81146100c457600080fd5b50565b6000815190506100d6816100b0565b92915050565b6000602082840312156100f2576100f1610079565b5b6000610100848285016100c7565b91505092915050565b610a2c806101186000396000f3fe608060405234801561001057600080fd5b506004361061007d5760003560e01c80636ec4f4bf1161005b5780636ec4f4bf146100fe5780636f5528861461011c57806386c76e071461013a578063ab4f5bbf1461016b5761007d565b806301c7c89a14610082578063150b7a02146100b25780636dce424e146100e2575b600080fd5b61009c600480360381019061009791906105bd565b610187565b6040516100a991906105f9565b60405180910390f35b6100cc60048036038101906100c791906106d7565b610201565b6040516100d9919061079a565b60405180910390f35b6100fc60048036038101906100f791906105bd565b610242565b005b61010661034b565b60405161011391906105f9565b60405180910390f35b610124610351565b60405161013191906105f9565b60405180910390f35b610154600480360381019061014f91906105bd565b6103b5565b6040516101629291906107d0565b60405180910390f35b610185600480360381019061018091906105bd565b6103e6565b005b60008060005b6000548110156101f5576001600082815260200190815260200160002060000160009054906101000a900460ff16156101e257818414156101d25780925050506101fc565b6001826101df9190610828565b91505b80806101ed9061087e565b91505061018d565b5060009150505b919050565b60007f544c765b33ca411cce832250371569244f765a17fcd217832be093f0fd5fa45b60405160405180910390a163150b7a0260e01b905095945050505050565b604051806040016040528060011515815260200182815250600160008054815260200190815260200160002060008201518160000160006101000a81548160ff021916908315150217905550602082015181600101559050506102b1600160005461056790919063ffffffff16565b600081905550600260009054906101000a900473ffffffffffffffffffffffffffffffffffffffff1673ffffffffffffffffffffffffffffffffffffffff166323b872dd3330846040518463ffffffff1660e01b8152600401610316939291906108d6565b600060405180830381600087803b15801561033057600080fd5b505af1158015610344573d6000803e3d6000fd5b5050505050565b60005481565b60008060005b6000548110156103ad576001600082815260200190815260200160002060000160009054906101000a900460ff161561039a576001826103979190610828565b91505b80806103a59061087e565b915050610357565b508091505090565b60016020528060005260406000206000915090508060000160009054906101000a900460ff16908060010154905082565b60005481111561042b576040517f08c379a00000000000000000000000000000000000000000000000000000000081526004016104229061096a565b60405180910390fd5b6001600082815260200190815260200160002060000160009054906101000a900460ff1661048e576040517f08c379a0000000000000000000000000000000000000000000000000000000008152600401610485906109d6565b60405180910390fd5b60006001600083815260200190815260200160002060000160006101000a81548160ff021916908315150217905550600260009054906101000a900473ffffffffffffffffffffffffffffffffffffffff1673ffffffffffffffffffffffffffffffffffffffff166323b872dd303360016000868152602001908152602001600020600101546040518463ffffffff1660e01b8152600401610532939291906108d6565b600060405180830381600087803b15801561054c57600080fd5b505af1158015610560573d6000803e3d6000fd5b5050505050565b600081836105759190610828565b905092915050565b600080fd5b600080fd5b6000819050919050565b61059a81610587565b81146105a557600080fd5b50565b6000813590506105b781610591565b92915050565b6000602082840312156105d3576105d261057d565b5b60006105e1848285016105a8565b91505092915050565b6105f381610587565b82525050565b600060208201905061060e60008301846105ea565b92915050565b600073ffffffffffffffffffffffffffffffffffffffff82169050919050565b600061063f82610614565b9050919050565b61064f81610634565b811461065a57600080fd5b50565b60008135905061066c81610646565b92915050565b600080fd5b600080fd5b600080fd5b60008083601f84011261069757610696610672565b5b8235905067ffffffffffffffff8111156106b4576106b3610677565b5b6020830191508360018202830111156106d0576106cf61067c565b5b9250929050565b6000806000806000608086880312156106f3576106f261057d565b5b60006107018882890161065d565b95505060206107128882890161065d565b9450506040610723888289016105a8565b935050606086013567ffffffffffffffff81111561074457610743610582565b5b61075088828901610681565b92509250509295509295909350565b60007fffffffff0000000000000000000000000000000000000000000000000000000082169050919050565b6107948161075f565b82525050565b60006020820190506107af600083018461078b565b92915050565b60008115159050919050565b6107ca816107b5565b82525050565b60006040820190506107e560008301856107c1565b6107f260208301846105ea565b9392505050565b7f4e487b7100000000000000000000000000000000000000000000000000000000600052601160045260246000fd5b600061083382610587565b915061083e83610587565b9250827fffffffffffffffffffffffffffffffffffffffffffffffffffffffffffffffff03821115610873576108726107f9565b5b828201905092915050565b600061088982610587565b91507fffffffffffffffffffffffffffffffffffffffffffffffffffffffffffffffff8214156108bc576108bb6107f9565b5b600182019050919050565b6108d081610634565b82525050565b60006060820190506108eb60008301866108c7565b6108f860208301856108c7565b61090560408301846105ea565b949350505050565b600082825260208201905092915050565b7f494420696e6578697374656e7465000000000000000000000000000000000000600082015250565b6000610954600e8361090d565b915061095f8261091e565b602082019050919050565b6000602082019050818103600083015261098381610947565b9050919050565b7f4d75737420626520616374697665000000000000000000000000000000000000600082015250565b60006109c0600e8361090d565b91506109cb8261098a565b602082019050919050565b600060208201905081810360008301526109ef816109b3565b905091905056fea2646970667358221220cc068293680e6bac33361aab1c9ba433e96c0fd3cf51991d87c908b6d4c5c43f64736f6c634300080a0033",
  "immutableReferences": {},
  "source": "// SPDX-License-Identifier: MIT\n\npragma solidity ^0.8.10;\n\nimport \"@openzeppelin/contracts/token/ERC721/ERC721.sol\";\nimport \"@openzeppelin/contracts/token/ERC721/IERC721Receiver.sol\";\nimport \"@openzeppelin/contracts/utils/math/SafeMath.sol\";\n\ncontract Marketplace is IERC721Receiver {\n    using SafeMath for uint256;\n\n    event Received();\n\n    struct Book {\n        bool isActive;\n        uint256 tokenID;\n    }\n    uint256 public totalBooks;\n    mapping(uint256 => Book) public booksAvailable; // index => tokenID\n\n    ERC721 tokenContract;\n\n    constructor(address tokenAddress) {\n        tokenContract = ERC721(tokenAddress);\n    }\n\n    function addBook(uint256 tokenID) public {\n        booksAvailable[totalBooks] = Book(true, tokenID); // Aadimos el libro disponible\n\n        totalBooks = totalBooks.add(1); //Incrementamos el total de libros disponibles\n        tokenContract.transferFrom(msg.sender, address(this), tokenID);\n    }\n\n    function rentBook(uint256 index) public {\n        require(index <= totalBooks, \"ID inexistente\");\n        require(booksAvailable[index].isActive, \"Must be active\");\n        booksAvailable[index].isActive = false;\n        tokenContract.transferFrom(\n            address(this),\n            msg.sender,\n            booksAvailable[index].tokenID\n        );\n    }\n\n    //Me devuelve el libro activo en el indice indicado\n    function getActiveBooksByIndex(uint256 index)\n        public\n        view\n        returns (uint256)\n    {\n        uint256 j;\n        for (uint256 i = 0; i < totalBooks; i++) {\n            if (booksAvailable[i].isActive) {\n                if (index == j) {\n                    return i;\n                }\n                j += 1;\n            }\n        }\n        return 0;\n    }\n\n    // Devuelve cuantos libros hay disponibles.\n    function getActiveBooksCount() public view returns (uint256) {\n        uint256 result;\n        for (uint256 i = 0; i < totalBooks; i++) {\n            if (booksAvailable[i].isActive) {\n                result += 1;\n            }\n        }\n        return result;\n    }\n\n    function onERC721Received(\n        address _operator,\n        address _from,\n        uint256 _tokenId,\n        bytes calldata _data\n    ) external override returns (bytes4) {\n        _operator;\n        _from;\n        _tokenId;\n        _data;\n        emit Received();\n        return 0x150b7a02;\n    }\n}\n",
  "sourcePath": "C:\\Users\\Axel\\Desktop\\biblioDApp\\contracts\\Marketplace.sol",
  "compiler": {
    "name": "solc",
    "version": "0.8.10+commit.fc410830.Emscripten.clang"
  },
  "schemaVersion": "3.4.3",
  "updatedAt": "2022-01-25T18:05:35.310Z",
  "networkType": "ethereum",
  "devdoc": {
    "kind": "dev",
    "methods": {},
    "version": 1
  },
  "userdoc": {
    "kind": "user",
    "methods": {},
    "version": 1
  }
}