{
  "contractName": "Marketplace",
  "abi": [
    {
      "inputs": [
        {
          "internalType": "address",
          "name": "tokenAddress",
          "type": "address"
        }
      ],
      "stateMutability": "nonpayable",
      "type": "constructor"
    },
    {
      "anonymous": false,
      "inputs": [
        {
          "indexed": false,
          "internalType": "uint256",
          "name": "_tokenID",
          "type": "uint256"
        },
        {
          "indexed": false,
          "internalType": "uint256",
          "name": "_index",
          "type": "uint256"
        }
      ],
      "name": "Added",
      "type": "event"
    },
    {
      "anonymous": false,
      "inputs": [
        {
          "indexed": false,
          "internalType": "uint256",
          "name": "_tokenID",
          "type": "uint256"
        },
        {
          "indexed": false,
          "internalType": "address",
          "name": "_from",
          "type": "address"
        }
      ],
      "name": "Received",
      "type": "event"
    },
    {
      "anonymous": false,
      "inputs": [
        {
          "indexed": false,
          "internalType": "uint256",
          "name": "_tokenID",
          "type": "uint256"
        },
        {
          "indexed": false,
          "internalType": "address",
          "name": "_to",
          "type": "address"
        }
      ],
      "name": "Rented",
      "type": "event"
    },
    {
      "inputs": [
        {
          "internalType": "uint256",
          "name": "",
          "type": "uint256"
        }
      ],
      "name": "booksAvailable",
      "outputs": [
        {
          "internalType": "bool",
          "name": "isActive",
          "type": "bool"
        },
        {
          "internalType": "uint256",
          "name": "tokenID",
          "type": "uint256"
        }
      ],
      "stateMutability": "view",
      "type": "function",
      "constant": true
    },
    {
      "inputs": [],
      "name": "totalBooks",
      "outputs": [
        {
          "internalType": "uint256",
          "name": "",
          "type": "uint256"
        }
      ],
      "stateMutability": "view",
      "type": "function",
      "constant": true
    },
    {
      "inputs": [
        {
          "internalType": "uint256",
          "name": "tokenID",
          "type": "uint256"
        },
        {
          "internalType": "address",
          "name": "from",
          "type": "address"
        }
      ],
      "name": "addBook",
      "outputs": [],
      "stateMutability": "nonpayable",
      "type": "function"
    },
    {
      "inputs": [
        {
          "internalType": "uint256",
          "name": "_tokenID",
          "type": "uint256"
        }
      ],
      "name": "rentBook",
      "outputs": [],
      "stateMutability": "nonpayable",
      "type": "function"
    },
    {
      "inputs": [
        {
          "internalType": "uint256",
          "name": "_tokenID",
          "type": "uint256"
        }
      ],
      "name": "returnBook",
      "outputs": [],
      "stateMutability": "nonpayable",
      "type": "function"
    },
    {
      "inputs": [
        {
          "internalType": "uint256",
          "name": "index",
          "type": "uint256"
        }
      ],
      "name": "getActiveBooksByIndex",
      "outputs": [
        {
          "internalType": "uint256",
          "name": "",
          "type": "uint256"
        }
      ],
      "stateMutability": "view",
      "type": "function",
      "constant": true
    },
    {
      "inputs": [],
      "name": "getActiveBooksCount",
      "outputs": [
        {
          "internalType": "uint256",
          "name": "",
          "type": "uint256"
        }
      ],
      "stateMutability": "view",
      "type": "function",
      "constant": true
    },
    {
      "inputs": [
        {
          "internalType": "uint256",
          "name": "_tokenID",
          "type": "uint256"
        }
      ],
      "name": "getIndexByTokenID",
      "outputs": [
        {
          "internalType": "uint256",
          "name": "",
          "type": "uint256"
        }
      ],
      "stateMutability": "view",
      "type": "function",
      "constant": true
    },
    {
      "inputs": [
        {
          "internalType": "address",
          "name": "_operator",
          "type": "address"
        },
        {
          "internalType": "address",
          "name": "_from",
          "type": "address"
        },
        {
          "internalType": "uint256",
          "name": "_tokenId",
          "type": "uint256"
        },
        {
          "internalType": "bytes",
          "name": "_data",
          "type": "bytes"
        }
      ],
      "name": "onERC721Received",
      "outputs": [
        {
          "internalType": "bytes4",
          "name": "",
          "type": "bytes4"
        }
      ],
      "stateMutability": "pure",
      "type": "function",
      "constant": true
    }
  ],
  "bytecode": "0x60806040523480156200001157600080fd5b506040516200127c3803806200127c8339818101604052810190620000379190620000e9565b80600260006101000a81548173ffffffffffffffffffffffffffffffffffffffff021916908373ffffffffffffffffffffffffffffffffffffffff160217905550506200011b565b600080fd5b600073ffffffffffffffffffffffffffffffffffffffff82169050919050565b6000620000b18262000084565b9050919050565b620000c381620000a4565b8114620000cf57600080fd5b50565b600081519050620000e381620000b8565b92915050565b6000602082840312156200010257620001016200007f565b5b60006200011284828501620000d2565b91505092915050565b611151806200012b6000396000f3fe608060405234801561001057600080fd5b50600436106100935760003560e01c80636ec4f4bf116100665780636ec4f4bf146101445780636f5528861461016257806386c76e0714610180578063ab4f5bbf146101b1578063ca5140c9146101cd57610093565b806301c7c89a14610098578063150b7a02146100c857806339f56e64146100f85780635e25fdfa14610114575b600080fd5b6100b260048036038101906100ad9190610b70565b6101e9565b6040516100bf9190610bac565b60405180910390f35b6100e260048036038101906100dd9190610c8a565b610263565b6040516100ef9190610d4d565b60405180910390f35b610112600480360381019061010d9190610d68565b610278565b005b61012e60048036038101906101299190610b70565b6104e2565b60405161013b9190610bac565b60405180910390f35b61014c610627565b6040516101599190610bac565b60405180910390f35b61016a61062d565b6040516101779190610bac565b60405180910390f35b61019a60048036038101906101959190610b70565b610691565b6040516101a8929190610dc3565b60405180910390f35b6101cb60048036038101906101c69190610b70565b6106c2565b005b6101e760048036038101906101e29190610b70565b610936565b005b60008060005b600054811015610257576001600082815260200190815260200160002060000160009054906101000a900460ff1615610244578184141561023457809250505061025e565b6001826102419190610e1b565b91505b808061024f90610e71565b9150506101ef565b5060009150505b919050565b600063150b7a0260e01b905095945050505050565b600260009054906101000a900473ffffffffffffffffffffffffffffffffffffffff1673ffffffffffffffffffffffffffffffffffffffff16638691e05f826040518263ffffffff1660e01b81526004016102d39190610ec9565b602060405180830381865afa1580156102f0573d6000803e3d6000fd5b505050506040513d601f19601f820116820180604052508101906103149190610f10565b610353576040517f08c379a000000000000000000000000000000000000000000000000000000000815260040161034a90610f9a565b60405180910390fd5b600260009054906101000a900473ffffffffffffffffffffffffffffffffffffffff1673ffffffffffffffffffffffffffffffffffffffff1663c8204ee5836040518263ffffffff1660e01b81526004016103ae9190610bac565b602060405180830381865afa1580156103cb573d6000803e3d6000fd5b505050506040513d601f19601f820116820180604052508101906103ef9190610f10565b61042e576040517f08c379a000000000000000000000000000000000000000000000000000000000815260040161042590611006565b60405180910390fd5b604051806040016040528060011515815260200183815250600160008054815260200190815260200160002060008201518160000160006101000a81548160ff021916908315150217905550602082015181600101559050507fd822787006f6794403d16891b4a593a2085bdc9fc3d768f12f0b13843fdaa59b826000546040516104ba929190611026565b60405180910390a16104d86001600054610b1a90919063ffffffff16565b6000819055505050565b6000600260009054906101000a900473ffffffffffffffffffffffffffffffffffffffff1673ffffffffffffffffffffffffffffffffffffffff1663c8204ee5836040518263ffffffff1660e01b815260040161053f9190610bac565b602060405180830381865afa15801561055c573d6000803e3d6000fd5b505050506040513d601f19601f820116820180604052508101906105809190610f10565b6105bf576040517f08c379a00000000000000000000000000000000000000000000000000000000081526004016105b690611006565b60405180910390fd5b6000806000905060005b600054811080156105de575060001515821515145b1561061c57846001600083815260200190815260200160002060010154141561060957809250600191505b808061061490610e71565b9150506105c9565b508192505050919050565b60005481565b60008060005b600054811015610689576001600082815260200190815260200160002060000160009054906101000a900460ff1615610676576001826106739190610e1b565b91505b808061068190610e71565b915050610633565b508091505090565b60016020528060005260406000206000915090508060000160009054906101000a900460ff16908060010154905082565b60006106cd826104e2565b9050600260009054906101000a900473ffffffffffffffffffffffffffffffffffffffff1673ffffffffffffffffffffffffffffffffffffffff1663c8204ee5836040518263ffffffff1660e01b815260040161072a9190610bac565b602060405180830381865afa158015610747573d6000803e3d6000fd5b505050506040513d601f19601f8201168201806040525081019061076b9190610f10565b6107aa576040517f08c379a00000000000000000000000000000000000000000000000000000000081526004016107a190611006565b60405180910390fd5b6001600082815260200190815260200160002060000160009054906101000a900460ff1661080d576040517f08c379a00000000000000000000000000000000000000000000000000000000081526004016108049061109b565b60405180910390fd5b60006001600083815260200190815260200160002060000160006101000a81548160ff021916908315150217905550600260009054906101000a900473ffffffffffffffffffffffffffffffffffffffff1673ffffffffffffffffffffffffffffffffffffffff166323b872dd303360016000868152602001908152602001600020600101546040518463ffffffff1660e01b81526004016108b1939291906110bb565b600060405180830381600087803b1580156108cb57600080fd5b505af11580156108df573d6000803e3d6000fd5b505050507f1a9eef09e3eb98112d990967f199b1b15d95acac49ad80f1d9a10c67e8dc361a60016000838152602001908152602001600020600101543360405161092a9291906110f2565b60405180910390a15050565b600260009054906101000a900473ffffffffffffffffffffffffffffffffffffffff1673ffffffffffffffffffffffffffffffffffffffff1663c8204ee5826040518263ffffffff1660e01b81526004016109919190610bac565b602060405180830381865afa1580156109ae573d6000803e3d6000fd5b505050506040513d601f19601f820116820180604052508101906109d29190610f10565b610a11576040517f08c379a0000000000000000000000000000000000000000000000000000000008152600401610a0890611006565b60405180910390fd5b6000610a1c826104e2565b9050600260009054906101000a900473ffffffffffffffffffffffffffffffffffffffff1673ffffffffffffffffffffffffffffffffffffffff166323b872dd3330856040518463ffffffff1660e01b8152600401610a7d939291906110bb565b600060405180830381600087803b158015610a9757600080fd5b505af1158015610aab573d6000803e3d6000fd5b50505050600180600083815260200190815260200160002060000160006101000a81548160ff0219169083151502179055507f8863e458255c600ae3e61be347822f3ee57088c8538b68b5dd2357e682e59e198233604051610b0e9291906110f2565b60405180910390a15050565b60008183610b289190610e1b565b905092915050565b600080fd5b600080fd5b6000819050919050565b610b4d81610b3a565b8114610b5857600080fd5b50565b600081359050610b6a81610b44565b92915050565b600060208284031215610b8657610b85610b30565b5b6000610b9484828501610b5b565b91505092915050565b610ba681610b3a565b82525050565b6000602082019050610bc16000830184610b9d565b92915050565b600073ffffffffffffffffffffffffffffffffffffffff82169050919050565b6000610bf282610bc7565b9050919050565b610c0281610be7565b8114610c0d57600080fd5b50565b600081359050610c1f81610bf9565b92915050565b600080fd5b600080fd5b600080fd5b60008083601f840112610c4a57610c49610c25565b5b8235905067ffffffffffffffff811115610c6757610c66610c2a565b5b602083019150836001820283011115610c8357610c82610c2f565b5b9250929050565b600080600080600060808688031215610ca657610ca5610b30565b5b6000610cb488828901610c10565b9550506020610cc588828901610c10565b9450506040610cd688828901610b5b565b935050606086013567ffffffffffffffff811115610cf757610cf6610b35565b5b610d0388828901610c34565b92509250509295509295909350565b60007fffffffff0000000000000000000000000000000000000000000000000000000082169050919050565b610d4781610d12565b82525050565b6000602082019050610d626000830184610d3e565b92915050565b60008060408385031215610d7f57610d7e610b30565b5b6000610d8d85828601610b5b565b9250506020610d9e85828601610c10565b9150509250929050565b60008115159050919050565b610dbd81610da8565b82525050565b6000604082019050610dd86000830185610db4565b610de56020830184610b9d565b9392505050565b7f4e487b7100000000000000000000000000000000000000000000000000000000600052601160045260246000fd5b6000610e2682610b3a565b9150610e3183610b3a565b9250827fffffffffffffffffffffffffffffffffffffffffffffffffffffffffffffffff03821115610e6657610e65610dec565b5b828201905092915050565b6000610e7c82610b3a565b91507fffffffffffffffffffffffffffffffffffffffffffffffffffffffffffffffff821415610eaf57610eae610dec565b5b600182019050919050565b610ec381610be7565b82525050565b6000602082019050610ede6000830184610eba565b92915050565b610eed81610da8565b8114610ef857600080fd5b50565b600081519050610f0a81610ee4565b92915050565b600060208284031215610f2657610f25610b30565b5b6000610f3484828501610efb565b91505092915050565b600082825260208201905092915050565b7f4e6f206175746f72697a61646f00000000000000000000000000000000000000600082015250565b6000610f84600d83610f3d565b9150610f8f82610f4e565b602082019050919050565b60006020820190508181036000830152610fb381610f77565b9050919050565b7f4e6f206578697374652065736520746f6b656e49440000000000000000000000600082015250565b6000610ff0601583610f3d565b9150610ffb82610fba565b602082019050919050565b6000602082019050818103600083015261101f81610fe3565b9050919050565b600060408201905061103b6000830185610b9d565b6110486020830184610b9d565b9392505050565b7f4d75737420626520616374697665000000000000000000000000000000000000600082015250565b6000611085600e83610f3d565b91506110908261104f565b602082019050919050565b600060208201905081810360008301526110b481611078565b9050919050565b60006060820190506110d06000830186610eba565b6110dd6020830185610eba565b6110ea6040830184610b9d565b949350505050565b60006040820190506111076000830185610b9d565b6111146020830184610eba565b939250505056fea26469706673582212203dc514029c385bd6624eeda717a000b0a00abd60f734a8ee2c6c5d85a1e72ae564736f6c634300080a0033",
  "immutableReferences": {},
  "source": "// SPDX-License-Identifier: MIT\n\npragma solidity ^0.8.10;\n\nimport \"@openzeppelin/contracts/token/ERC721/ERC721.sol\";\nimport \"@openzeppelin/contracts/token/ERC721/IERC721Receiver.sol\";\nimport \"@openzeppelin/contracts/utils/math/SafeMath.sol\";\nimport \"./LibroNFT.sol\";\n\ncontract Marketplace is IERC721Receiver {\n    using SafeMath for uint256;\n\n    event Received(uint256 _tokenID, address _from);\n    event Rented(uint256 _tokenID, address _to);\n    event Added(uint256 _tokenID, uint256 _index);\n\n    struct Book {\n        bool isActive;\n        uint256 tokenID;\n    }\n    uint256 public totalBooks;\n    mapping(uint256 => Book) public booksAvailable; // index => tokenID\n\n    LibroNFT tokenContract;\n\n    constructor(address tokenAddress) {\n        tokenContract = LibroNFT(tokenAddress);\n    }\n\n    function addBook(uint256 tokenID, address from) public {\n        require(tokenContract.isLibrarian(from), \"No autorizado\");\n        require(tokenContract.existTokenID(tokenID), \"No existe ese tokenID\");\n        booksAvailable[totalBooks] = Book(true, tokenID); // Aadimos el libro disponible\n        emit Added(tokenID, totalBooks);\n        totalBooks = totalBooks.add(1); //Incrementamos el total de libros disponibles\n    }\n\n    function rentBook(uint256 _tokenID) public {\n        uint256 index = getIndexByTokenID(_tokenID);\n        require(tokenContract.existTokenID(_tokenID), \"No existe ese tokenID\");\n        require(booksAvailable[index].isActive, \"Must be active\");\n        booksAvailable[index].isActive = false;\n        tokenContract.transferFrom(\n            address(this),\n            msg.sender,\n            booksAvailable[index].tokenID\n        );\n        emit Rented(booksAvailable[index].tokenID, msg.sender);\n    }\n\n    function returnBook(uint256 _tokenID) public {\n        require(tokenContract.existTokenID(_tokenID), \"No existe ese tokenID\");\n        uint256 indexBook = getIndexByTokenID(_tokenID);\n        tokenContract.transferFrom(msg.sender, address(this), _tokenID);\n        booksAvailable[indexBook].isActive = true;\n\n        emit Received(_tokenID, msg.sender);\n    }\n\n    //Me devuelve el libro activo en el indice indicado\n    function getActiveBooksByIndex(uint256 index)\n        public\n        view\n        returns (uint256)\n    {\n        uint256 j;\n        for (uint256 i = 0; i < totalBooks; i++) {\n            if (booksAvailable[i].isActive) {\n                if (index == j) {\n                    return i;\n                }\n                j += 1;\n            }\n        }\n        return 0;\n    }\n\n    // Devuelve cuantos libros hay disponibles.\n    function getActiveBooksCount() public view returns (uint256) {\n        uint256 result;\n        for (uint256 i = 0; i < totalBooks; i++) {\n            if (booksAvailable[i].isActive) {\n                result += 1;\n            }\n        }\n        return result;\n    }\n\n    function getIndexByTokenID(uint256 _tokenID) public view returns (uint256) {\n        require(tokenContract.existTokenID(_tokenID), \"No existe ese tokenID\");\n        uint256 result; //Si ponemos el return dentro del for da un warning de posibilidad de no retornar nada\n        bool find = false; //Para no continuar iterando sin necesidad\n        for (uint256 i = 0; i < totalBooks && find == false; i++) {\n            if (booksAvailable[i].tokenID == _tokenID) {\n                result = i;\n                find = true;\n            }\n        }\n        return result;\n    }\n\n    function onERC721Received(\n        address _operator,\n        address _from,\n        uint256 _tokenId,\n        bytes calldata _data\n    ) external pure override returns (bytes4) {\n        _operator;\n        _from;\n        _tokenId;\n        _data;\n        return 0x150b7a02;\n    }\n}\n",
  "sourcePath": "C:\\Users\\Axel\\Desktop\\biblioDApp\\smartContracts\\contracts\\Marketplace.sol",
  "compiler": {
    "name": "solc",
    "version": "0.8.10+commit.fc410830.Emscripten.clang"
  },
  "schemaVersion": "3.4.3",
  "updatedAt": "2022-02-04T16:11:00.145Z",
  "networkType": "ethereum",
  "devdoc": {
    "kind": "dev",
    "methods": {},
    "version": 1
  },
  "userdoc": {
    "kind": "user",
    "methods": {},
    "version": 1
  }
}